:100000000C94D4020C9499270C940C030C940C03BC
:100010000C940C030C940C030C940C030C940C0324
:100020000C940C030C940C030C941A220C94D621FF
:100030000C9417230C940C030C940C030C940C03D9
:100040000C940C030C940C030C940C030C940C03F4
:100050000C940C030C94F3220C940C030C940C03DE
:100060000C940C030C940C030C940C030C940C03D4
:100070000C940C030C940C030C940C030C940C03C4
:100080000C940C030C940C030C940C030C940C03B4
:100090000C940C030C940C030C940C030C940C03A4
:1000A0000C940C030C940C030C940C03A800290072
:1000B00035001E001F002000210022004D0000001E
:1000C0002B0014001A000800150017004B00000058
:1000D000390004001600070009000A004E00000065
:1000E000E1001D001B00060019000500E7000000EC
:1000F000E000E300E20050004F0021522300240002
:100100002500260027002D002E002A001C001800C4
:100110000C00120013002F00300031000B000D0006
:100120000E000F0033003400000028001100100002
:10013000360037003800E500000052002C002C008B
:10014000000046004B014E0100005100A8002900AC
:1001500035003A003B003C003D003E00000000003E
:100160002B00000000002900350000000000000006
:1001700039001E001F0020002100220000000000A6
:10018000E1000000000051005200000000000000EB
:10019000E000E300E20050004F0021523F00400029
:1001A000410042004300440045004C0000002D0087
:1001B0002E00000000000000000031002300240099
:1001C00025002600270000000000280031002F0035
:1001D000300026022702E500000052002C002C000F
:1001E0000000E60050184F08000051000000000019
:1001F00000000000000000000000000000000000FF
:1002000000000278057806780078017827780000E9
:100210000000297823782578207804782878000051
:1002200000002A78247826782178037800000000DE
:100230000000000000000000227800000000000024
:1002400000000000000000000000000000000000AE
:10025000000000000000000000000000000000009E
:10026000000000000000000000000000000000008E
:10027000000000000000000000000000000000007E
:100280000000010000000000000000001E0F05003B
:10029000047F3F1F643214643214783C1E1E140A1B
:1002A0000500010101010101010101020202020236
:1002B000020202020303030303030303040404040E
:1002C00004040405050505050606060606070707D6
:1002D000070708080808090909090A0A0A0B0B0B8D
:1002E0000C0C0C0D0D0D0E0E0E0F0F0F101011112A
:1002F00011121213131414151516161717181819AE
:10030000191A1A1B1B1C1D1D1E1E1F202021222214
:10031000232424252626272829292A2B2C2D2D2E57
:100320002F30313232333435363738393A3B3C3D71
:100330003E3F404142434445464748494A4C4D4E62
:100340004F50515354555658595A5B5D5E5F616228
:1003500064656668696B6C6D6F7072737577787AB7
:100360007B7D7E8082838587888A8C8E8F91939512
:1003700096989A9C9EA0A2A3A5A7A9ABADAFB1B336
:10038000B5B7BABCBEC0C2C4C6C9CBCDCFD1D4D616
:10039000D8DBDDDFE2E4E7E9EBEEF0F3F5F8FAFDB8
:1003A000FFFFAA7F5540000102030C0D0E0F04054C
:1003B000060708090A0B2223252628292A2C2D2F77
:1003C0003032333536383A3B3D3E4042434547496B
:1003D0004A4C4E5051535557595A5C5E60626466A0
:1003E00068696B6D6F71737577797B7D7F818385AC
:1003F00087898A8C8E90929496989A9C9E9FA1A3AE
:10040000A5A7A8AAACAEAFB1B3B4B6B8B9BBBCBED1
:10041000BFC1C2C3C5C6C7C9CACBCCCDCED0D1D24D
:10042000D2D3D4D5D6D7D7D8D9D9DADADBDBDBDC4F
:10043000DCDCDCDCDDDDDDDDDCDCDCDCDCDBDBDBFB
:10044000DADAD9D9D8D7D7D6D5D4D3D2D2D1D0CE5B
:10045000CDCCCBCAC9C7C6C5C3C2C1BFBEBCBBB960
:10046000B8B6B4B3B1AFAEACAAA8A7A5A3A19F9EDE
:100470009C9A98969492908E8C8A89878583817FA6
:100480007D7B79777573716F6D6B69686664626087
:100490005E5C5A5957555351504E4C4A4947454353
:1004A00042403E3D3B3A3836353332302F2D2C2AF0
:1004B00029282625232205010980A1018503190188
:1004C0002AB700150126B700950175108100C005F7
:1004D0000C0901A101850419012AA002150126A019
:1004E00002950175108100C005010906A1010507EB
:1004F00019E029E71500250195087501810295018C
:10050000750881010507190029FF150026FF0095D0
:1005100006750881000508190129059505750191E1
:1005200002950175039101C009023B00020100A080
:10053000FA09040000010301010009211101000171
:10054000224000070581030800010904010001039E
:100550000000000921110100012232000705820379
:10056000200001120100020000000810CB58130007
:1005700001010200011C0346006F006C0064004B87
:1005800000420020005200650076002E002000315D
:100590000000000E034B0065006500620069006FFB
:1005A000000000040309040011241FBECFEFDAE0AD
:1005B000DEBFCDBF04B603FE18C0809190039091BA
:1005C0009103A0919203B09193038730904BA74081
:1005D000B04B59F410929003109291031092920331
:1005E00010929303E0E0F8E3099523E0ACEDB1E06D
:1005F00001C01D92A039B207E1F711E0A0E0B1E01F
:10060000E6E1F6E502C005900D92AC3DB107D9F7E1
:100610000E943E230C94B52A0C940000482F209190
:100620008C039091530357E0291302C080E0089592
:1006300030E0529FF001539FF00D1124EC5AFC4F13
:100640008181681306C08081481303C085818111B0
:10065000EECF2F5F3F4F2770E7CFE8EDF0E08081CE
:100660008E7F80831092E2001092DA001092E100F7
:10067000A0EEB0E08C9181608C9380818F77808335
:1006800019BCA7EDB0E08C918E7F8C9380818F7E1A
:10069000808310923C0308952091E4003091E5009E
:1006A00095E6A9012091EC00822F817020FF06C001
:1006B0008091E80080FF06C080E008952091E80066
:1006C00022FD1AC080914903882389F0853089F082
:1006D0008091EB0085FD0FC02091E4003091E50092
:1006E00042175307F9F29150E1F684E0089582E051
:1006F000089583E0089581E0089580914B0387FF7A
:1007000013C08091E80082FF06C08091E8008B77DB
:100710008093E80004C0809149038111F2CF0895CD
:10072000809149038823D9F38091E80080FFF8CFB6
:100730008091E8008E77ECCF982F9093E900242FDA
:10074000762F50E0891731F07091EC002091ED0088
:100750005091F00021FD07C09F5F973071F78093A3
:10076000E90081E008953091EB003E7F3093EB008B
:100770003091ED003D7F3093ED003091EB00316022
:100780003093EB007093EC002093ED005093F00059
:100790002091EE0027FDE0CF80E00895B0E0A0E0DA
:1007A000E4EDF3E00C94BF28C8EDD0E088818F7EA3
:1007B0008883E7EDF0E080818160808384E082BF00
:1007C00081E080933C0388818E7F888302EE10E075
:1007D000F80110821092DA0081EEC82ED12CF601B9
:1007E000108288818F778883888180688883888158
:1007F0008F7D888319BC1092490310924A0310928E
:1008000048031092470390EEE92EF12CF701808106
:100810008B7F808388818160888342E060E080E014
:100820000E949C03F60180818E7F8083F801808185
:1008300081608083808188608083F70180818E7FE2
:100840008083888180618883CDB7DEB7E8E00C942F
:10085000DB28FC0180915103909152038617970782
:10086000A0F06115710529F49091E8009E779093AE
:10087000E80090E06115710551F4911108C0809174
:10088000E80082FF34C080E00895BC01F2CF80917F
:1008900049038823C1F18530C1F18091E80083FDCF
:1008A00030C08091E80082FDEACF8091E80080FFAF
:1008B000E1CF8091F3002091F200382F611571058E
:1008C00019F02830310558F091E02830310509F051
:1008D00090E02091E8002E772093E800CBCF819123
:1008E0008093F100615071092F5F3F4FE7CF8091F6
:1008F0004903882341F0853041F08091E80083FF6F
:10090000BECF81E0089582E0089583E008950895C0
:10091000089580913E0308959C014FB7F89480910B
:10092000380390913903A0913A03B0913B034FBF34
:10093000821B930B08952FB7F89460913803709140
:10094000390380913A0390913B032FBF08952FB74D
:10095000F8948091380390913903A0913A03B091B3
:100960003B032FBF0895A3E0B0E0E9EBF4E00C9463
:10097000C528209135033091360328173907A1F097
:100980009093360380933503E0913303F091340361
:10099000309751F024E029839B838A830680F78176
:1009A000E02DCE01019609952396E2E00C94E12812
:1009B000A3E0B0E0EEEDF4E00C94C5282091310303
:1009C0003091320328173907A1F0909332038093B6
:1009D0003103E0913303F0913403309751F023E079
:1009E00029839B838A830680F781E02DCE010196BF
:1009F00009952396E2E00C94E128FC01680F791F29
:100A00008FEF91E32191822728E030E087FF09C032
:100A1000880F892721503109C9F7E617F70791F7A1
:100A20000895880FF7CF8F929F92AF92BF92EF9267
:100A3000FF920F931F93CF93DF938430B8F581110A
:100A400036C0909180009F77909380002D98A09160
:100A50008600B0918700282F30E00E94A62A23E06C
:100A600030E040E050E00E94842A89019A018091A0
:100A70008600909187006CE070E00E940829601762
:100A80007107D8F0C80169E070E00E9408297093EE
:100A9000890060938800DF91CF911F910F91FF90A3
:100AA000EF90BF90AF909F908F90089583E09091CA
:100AB0008000906890938000CACF809186009091CA
:100AC0008700E0908600F0908700E0918600F0912A
:100AD0008700C6E0D0E0BE010E940829060F171F5C
:100AE000211D311D4801590185E0880C991CAA1C63
:100AF000BB1C8A95D1F7C701BE010E9408299F013E
:100B000050E040E0260F371F411D511DC501B401C3
:100B10000E94842A49015A01E0918600F0918700E1
:100B2000CA01B9010E94EC289B01AC01DF010E94BF
:100B3000712A9B01AC01C501B4010E94EC282FE091
:100B400096958795779567952A95D1F700918600B8
:100B50001091870030E020E00617170728073907B3
:100B600008F095CF609186007091870090CFFA01D0
:100B7000811101C0FB0109950895E2EAF2E01182BA
:100B8000828184608283089580912803982F9E7FBC
:100B900029F4817082608093280308958635E8F3F4
:100BA00081708465F8CFAF92BF92DF92EF92FF928F
:100BB0000F931F93CF93DF93082F162FE901E42F94
:100BC000F0E0EF55FD4F611110C0E4915E2F4E2F04
:100BD0004983E8835A83DF91CF911F910F91FF9052
:100BE000EF90DF90BF90AF900895E62EF12C4491E6
:100BF000D42EE42FF0E026E0829FC00111242FEFD5
:100C000030E0B9010E940829802F90E0880F991FD9
:100C100055E5569FD001579FB00D11248A1B9B0BA1
:100C2000982F990F890F5901AE18BF08AE9ED001B9
:100C3000AF9EB00DBE9EB00D11245B2F189F80019A
:100C40001124012F11275901A01AB10AAE9E80016B
:100C5000AF9E100DBE9E100D11245901A81AB108A7
:100C6000AE9CC001AF9C900DBE9C900D1124892FAD
:100C70009927281B390B2E9FC0012F9F900D3E9F57
:100C8000900D1124E92F62307105A1F050F4611527
:100C9000710509F49DCF6130710581F0EB2F512F63
:100CA00097CF6430710569F080F06630710509F402
:100CB0008FCFF4CFE42F4B2F592F8ACFE42F412F22
:100CC00087CFEB2F542F492F83CF4B2F5D2DE12F53
:100CD0007FCF80E00895F894E82FE295EF70F0E080
:100CE00031A1282F2F7081E090E001C0880F2A9554
:100CF000EAF7982F9095932391A392A1892B82A331
:100D0000789408959091780292FF06C0282F287158
:100D10002830F9F4877F846093FF06C0282F28715C
:100D20002831F1F4877E84612091790220FF06C08A
:100D3000382F38713830D9F4877F816021FF06C0A1
:100D4000282F28712831D1F4877E816194FD877E18
:100D50000895282F24712430F9F68B7F8860DCCF2A
:100D6000282F2471243101F78B7E8861DDCF382F45
:100D70003171313019F78E7F8860E0CF282F2171D3
:100D8000213121F78E7E8861E1CF82389105B9F15A
:100D9000B0F48133910509F47DC048F4893291059E
:100DA00009F46DC08A32910509F47BC0089585333A
:100DB000910509F45FC08933910509F10895833ED7
:100DC0009105D9F138F4803E910529F1823E9105D3
:100DD00079F10895863E9105D9F1873E910509F490
:100DE0003EC0843E910541F52091790221FF24C047
:100DF0008091780284FD19C087EE90E008952091DB
:100E00007802237009F05AC02091790223FF14C0A0
:100E100089E290E008952091780220FD38C0309159
:100E2000790230FF09C024FF43C090E080E00895BC
:100E30002091780222FDF7CF08952091780222FDBB
:100E40003AC03091790230FD39C024FFF5CFEDCFA3
:100E50002091780223FFF0CF24FDE7CFCDCF209162
:100E6000780223FD2EC03091790231FFEECF84EE5F
:100E700090E008952091780225FFDECFC9CF209120
:100E8000780225FD21C02091790223FFD5CF89E387
:100E900090E0D2CF2091780226FFCECF8AE290E078
:100EA00008952091780226FFC7CF81E390E008954E
:100EB00083EE90E0089582EE90E0089580EE90E059
:100EC000089586EE90E0089585E390E008957A30E5
:100ED000C8F46830B8F48330C0F4E72FF0E09AE04B
:100EE000899FE00DF11D112483E0EE0FFF1F8A950D
:100EF000E1F7E60FF11DEE0FFF1FE455FF4F85915F
:100F00009491089580E090E0089581E0FCCF1F93D4
:100F1000CF93DF930E94C506EC01C11580E5D80789
:100F2000F0F5C11580E4D80708F09CC0C03ED1059B
:100F300020F5CD3CD10508F082C0C83AD10578F43F
:100F4000C53AD10508F073C0C130D10519F1209719
:100F500009F1C430D105F0F4D0E0C0E01BC0C33CBF
:100F6000D105D0F7C85AD0E0CC0FDD1FC45ADE4FF0
:100F70000990D881C02DD4640DC0C11580E2D80776
:100F800008F0D1C0C11581E0D80708F05AC0C83EAA
:100F9000D10510F7CE01DF91CF911F910895C03692
:100FA00082E5D80718F5C03482E5D80708F06BC091
:100FB000C03282E5D80708F05FC0C11582E5D807C6
:100FC00008F497C02C2F2695269580E2289F900143
:100FD00011248C2F8370C1E0D0E002C0CC0FDD1F44
:100FE0008A95E2F7C22BD32BDD68D4CFC03A82E5D5
:100FF000D80760F4C03882E5D80708F459C0CF712B
:10100000D0E0DC2FCC27C46FD06AC4CFC03C82E5CF
:10101000D80708F462C0C03E82E5D80708F09CCF2C
:10102000DC2FCC27CC27DF71C06FD06AB3CFC55A75
:10103000D0E0C75ADE4FC881D0E0D064ABCFD065D6
:10104000A9CF8D2F0E948206182FCE0199270E94CA
:10105000C506C12FD0E0DC2FCC27CC27DF71C82BF1
:10106000D92B98CFCE0199270E94C506CC27DF70D7
:10107000C82BD92BD06A8ECFCF71D0E0DC2FCC27F4
:10108000C16FD06A87CF2C2F26952695277080E2D6
:10109000289F900111248C2F8370C1E0D0E002C002
:1010A000CC0FDD1F8A95E2F7C22BD32BDC6872CF01
:1010B0002C2F26952695277080E2289F90011124D9
:1010C0008C2F8370C1E0D0E002C0CC0FDD1F8A9569
:1010D000E2F7C22BD32BDA685DCF8C2F8F710E9481
:1010E0008206C82FD0E0DC2FCC27CC27DF71D0625E
:1010F00051CF8C2F8F710E94820655E0D695C795EF
:101100005A95E1F7CF70D0E0DC2FCC27282F30E0C4
:1011100084FF05C044E0220F331F4A95E1F7C22B3C
:10112000D32BD06937CF8D2F8F710E948206182F55
:10113000CE0199270E94C506C12FD0E0DC2FCC2715
:10114000CC27DF71C82BD92BD2CF8095909122026A
:101150009823909322020895E0EEF1E09191891393
:1011600003C0DF0111971C9291E0E63EF907B1F749
:101170000895A0EEB1E0EFEF90E02D91821751F0CD
:10118000EF3F19F4211101C0E92F9F5F9630A9F7B5
:10119000EF3F09F408950E2E000CFF0BE252FE4FB4
:1011A0008283089580918C0390915303981301C01A
:1011B00008958F5F8770FACFB0E0A0E0E2EEF8E02C
:1011C0000C94BE287C0100917602109177028091E8
:1011D000230290912402082B192BCFE0D0E0CC24DD
:1011E000C394D12CBC2EC6010C2E02C0880F991FAF
:1011F0000A94E2F780239123892B49F4219790F7F1
:10120000B12C8B2DCDB7DEB7E9E00C94DA28B7010D
:101210008C2F0E9467070E948707019779F3F1CF0F
:10122000CF93DF93EC010E94DC08BE010E946707A8
:101230000E948707DF91CF9108959A3070F588302A
:1012400060F528E0929FF0011124E80FF11D6E2F48
:10125000677083E0F695E7958A95E1F7EE0FFF1F3B
:10126000EE0FFF1FE851FE4F50E040E080E021917B
:1012700030E0062E02C0369527950A94E2F72170D9
:101280003327042E01C0220F0A94EAF7822B4F5F06
:101290005F4F4430510559F7089580E008959A3022
:1012A00090F5883080F528E0929FF0011124E80F36
:1012B000F11D2E2F277041E001C0440F2A95EAF757
:1012C00083E0F695E7958A95E1F7EE0FFF1FEE0FA5
:1012D000FF1FE851FE4F30E020E070E05191DF0148
:1012E0001197CB01022E02C0969587950A94E2F7DA
:1012F000817081958527842385278C932F5F3F4FAD
:101300002430310559F7089590937702809376023F
:10131000089521E030E002C0220F331F8A95E2F7E2
:1013200020953095809176029091770282239323C5
:101330000E948409089590911702809589238093D3
:101340001702282F277069F4891759F090917902B4
:1013500092FF07C08695869586950E94890910920E
:101360001702089521E030E002C0220F331F8A9552
:10137000E2F78091760290917702822B932B0E9464
:101380008409089590932402809323020895FC0118
:1013900024812223C1F0808191810E9410099295BD
:1013A0009F70963091F058F4925F9F70923058F48D
:1013B000803F19F030F4883E30F481E008959A5F60
:1013C000F4CF843FD1F380E00895883EB0F3813FAD
:1013D000D1F7F3CFA6E0B0E0E0EFF9E00C94C42839
:1013E00049835A8349815A819923A1F0222391F09C
:1013F000CA010E94DC08182F682F89819A810E94F7
:101400004F0969817A81812F0E9467072696E3E060
:101410000C94E028CA010E941D09182FF2CF0F93E7
:101420001F93CF93DF938B01EA019091490394308E
:1014300061F58093E9008FEF9091E800815095FD70
:1014400006C095ED9A95F1F700008111F5CF8091D6
:10145000E80085FF1AC00E944C03811111C08091E1
:10146000E80085FD06C08091E8008E778093E80053
:10147000F2CFF80181918F018093F100219779F7E4
:101480008091E8008E778093E800DF91CF911F91E3
:101490000F91089543E050E0BC0182E00E940F0AE2
:1014A0000895CF93DF93EC0148E050E0BC0181E068
:1014B0000E940F0A88E0FE01AFE3B3E001900D92B5
:1014C0008A95E1F7DF91CF91089581E08093E00064
:1014D00080E28093D8001092C9008FE19EE40197CA
:1014E000F1F700C0000087E090EBDC0180939003EF
:1014F00090939103A0939203B093930388E19CE0AF
:101500000FB6F894A895809360000FBE909360008A
:10151000FFCFCF92DF92EF920F931F93CF93DF9382
:10152000CDB7DEB7E0970FB6F894DEBF0FBECDBFE4
:10153000609154018091280380FF4BC0E6EAF3E0FC
:101540009E012F5F3F4F8E010F5C1F4FC901A49179
:101550004A2F50E0DA01AA0FBB1FA40FB51FA855F0
:10156000BD4FCD90DD90EC90D901CD92DD92ED9202
:101570009D013196A017B10751F72091530143E027
:10158000249F800D911D11246E9A2EB12F7B3EB1A8
:1015900030645FB7F894FC01649FE00DF11D1124E5
:1015A000BF018617970741F55FBFEFE5F4E031977C
:1015B000F1F700C00000E0960FB6F894DEBF0FBE52
:1015C000CDBFDF91CF911F910F91EF90DF90CF9022
:1015D0000895809155019091560123E0829FF0017A
:1015E0001124E855FD4F891708F0A8CF1182108209
:1015F00012828F5F3396F7CFDC014D91CD01E8E089
:101600003EB9000000C047FF2EB9440F000000C0E3
:1016100000C000C02EB900C0EA9591F7C2CF0F9369
:101620001F93CF93DF93EC0110E000E090915701FE
:101630009017110609F06CF40E94890A8C8190E0E1
:101640000196817099278C83DF91CF911F910F9123
:10165000089520915501A801420F511D9A01220FB2
:10166000331F240F351F28553D4F4C8160912A03AD
:101670008091290396959017110651F04CF0442360
:1016800049F040912B030E94D3050F5F1F4FCECF2F
:101690004423B9F340E0F7CFB0E0A0E0E2E5FBE09F
:1016A0000C94BB28EC014C81042F10E09801D80168
:1016B0000E94A62A9B01AC010E94712A4B015C0189
:1016C000E0E2F0E0E01BF10BA5E5B0E0AC019B012E
:1016D0000E94712A6B017C019F01DF010E94362963
:1016E0009B01AC010E947C2A9B01AC01280D391D95
:1016F0004A1D5B1DC701B6010E94842AF22E822F6B
:1017000090E039E23F1520F143E0249F900111243D
:1017100035952795122F109500E085E5E82EEF18F6
:1017200080915701081718F10E94890A9C8181E075
:10173000992319F0903219F48FEF80935201809120
:101740005201890F8C83CDB7DEB7ECE00C94D7281B
:1017500025E530E0B901681B790B9B01220F331F8F
:10176000260F371F37FFD4CF2F5F3F4FD1CF8E2D9E
:1017700001FD8F2D20915501622F600F7727771F74
:101780009B01220F331F260F371F28553D4F412F36
:1017900060912A030E94D3050F5FC2CFEF92FF92A0
:1017A0000F931F93CF93DF93EC018C81811109C0BC
:1017B00081E08C831092A60292E090935101809375
:1017C0005001809155019091560123E0829FF001D4
:1017D0001124E855FD4F891758F110E003E060919E
:1017E0005701161758F10E94890A809150012091E3
:1017F000A602280F2093A60290915101980F909372
:101800005101191654F4022E000C330B409157016C
:101810004150550B2417350734F0819580935001C2
:10182000813009F41C82CDB7DEB7E6E00C94DD28E8
:101830001182108212828F5F3396CDCFE12EF12C70
:1018400070E0C7010E941C2920915501820F482F8A
:1018500050E02091A602022E000C330BE216F30694
:10186000BCF020915101022E000C330B2E153F05C8
:101870007CF0809F9001112428553D4F40912B030F
:1018800060912A03809129030E94D3051F5FA7CF8F
:10189000FA01EE0FFF1FE40FF51FE855FD4F11820F
:1018A00010821282F3CFB0E0A0E0E9E5FCE00C94F6
:1018B000BC28EC018A81BB24BA9480FD02C0BB2401
:1018C000B394A09057018C81811109C081E0B812B6
:1018D0001EC08FEF8A0D8093A50281E08C83F12CCE
:1018E000E12CEA14B8F00E94890A8091A50291E0E7
:1018F000B91254C081114DC080915701815080931D
:10190000A5021C82CDB7DEB7EBE00C94D82810926C
:10191000A502E3CF009155010E0D1F2D111DC80129
:10192000880F991F080F191F08551D4FF8011182C4
:101930001082128234E0C32ED12C912C8091A5020A
:10194000890D813114F18F70082E000C990B8E15C2
:101950009F0591F480912B038C9DA0018D9D500DCE
:1019600011245595479555954795980160912A03FF
:10197000809129030E94D3059B0CF1E0CF1AD10876
:10198000E9F68FEFE81AF80AACCF87FFDDCF8A0DB2
:10199000DBCF81508093A502BC82B4CF90E001964A
:1019A0006091570170E00E941C298093A5028C83EE
:1019B000A9CFEF92FF921F93CF93DF93EC0110E03A
:1019C000EE24EA94F12C60915701161770F00E94F2
:1019D000890A9A818C8190FF27C08F5F8C83DF9169
:1019E000CF911F91FF90EF90089520915501422FC4
:1019F000410F5527551FCA019A01220F331F280F87
:101A0000391F28553D4F70E0C7010E941C29962FB1
:101A10008C8140912B0360912A03199F800D112422
:101A20000E94D3051F5FCFCF8150D8CF909128035C
:101A300090FF0EC0909155012091560133E0939F85
:101A4000F0011124E855FD4F921718F00E94890A01
:101A500008958183608342839F5F3396F5CFA3E02F
:101A6000B0E0E5E3FDE00C94C3288C018091A7026F
:101A700081110AC09E012F5F3F4F4FEF6FEF0E9411
:101A8000D3058A818093A702F8016481613069F0EF
:101A90008091A70240E0662361F040E0623011F4DB
:101AA0004091A70280E060E004C06091A70240E09E
:101AB00080E00E94160DF801848190E0019663E0B9
:101AC00070E00E941C2984832396E4E00C94DF28B4
:101AD000A3E0B0E0EEE6FDE00C94C5289091280369
:101AE00090FF0AC09E012F5F3F4F0E94D3054B819C
:101AF00069818A810E94160D2396E2E00C94E12808
:101B0000CF93DF93EC01E8E2F3E0438162818C81C3
:101B10000E94680D8C818F5F8C83DF91CF91089537
:101B2000CF93DF93EC01EC81F0E0EA54FC4F449159
:101B3000E8E2F3E0628181810E94680D8C818F5F11
:101B40008C83DF91CF910895B0E0A0E0EAEAFDE058
:101B50000C94BD287C015B016A018091630201E065
:101B600010E08A3010F40AE010E0C1E0D0E0B501E6
:101B7000C701F6010995811104C021960C171D07B4
:101B80002CF4CDB7DEB7EAE00C94D928CC9F9001B5
:101B9000CD9F300D300D112490E080E045E34A9553
:101BA000F1F70000019682179307C1F7E0CF80910B
:101BB0003102811110C08091D80080618093D800DB
:101BC0008AE18A95F1F700C08091D90080FF0AC0B0
:101BD00081E08093310281E090913102913009F0EF
:101BE00080E0089582E0809331020E942D031092DC
:101BF0004903F1CF0E94D70D882359F0E0913303B8
:101C0000F0913403309729F00190F081E02D09958F
:101C1000089580E008950F931F930E94D70D8823A5
:101C200029F00E949B041F910F9108950E949B042C
:101C30000091640210916502209166023091670262
:101C4000600F711F821F931FEECF0E940B0E08952D
:101C50000E94D70D882319F00E94A70408950E94BE
:101C60000B0ECB010895682F86E090E00E941E2A9B
:101C70000895282F220F220F220F90913003977082
:101C8000922B90933003987F21E009F420E090910B
:101C9000300320FB90F9909330030E94130580914C
:101CA00030030E94330E08958091300380FD13C0ED
:101CB000816080933003813019F489E08093300390
:101CC000809130030E94330E809130038695869573
:101CD00086950E9413050895B0E0A0E0E2E7FEE0DB
:101CE0000C94B728FC016280448081E08483E6EB99
:101CF000F3E07490E5E3F4E0E491C0912B03C69522
:101D0000C158D0E0CC0FDD1FCD2FDD27812C75E031
:101D1000972EAA24AA94B12C55245A94E719EE2E92
:101D2000F12C80915701881638F00E94890ACDB7AE
:101D3000DEB7E0E10C94D328C82CD12C82E08615C4
:101D400068F09C9CF0019D9CF00D1124E852FD4F21
:101D500080912903808380912A038183411023C0CD
:101D60009C9CF0019D9CF00D1124E852FD4F1382C4
:101D7000128220915501C601820F911D9C01220FF4
:101D8000331F280F391F28553D4F9C9CF0019D9C07
:101D9000F00D1124E852FD4F4281618180810E9443
:101DA000D3058394BECF9C9C80019D9C100D112473
:101DB00008521D4FF80183818823F1F081508383FD
:101DC000859DC0011124648170E00E940829FB01F7
:101DD000FF27EA54FC4F8491E82FE719E59DC001E5
:101DE0001124B7010E94082980912B03689FB0013C
:101DF0001124F8017283BDCF0E94C729B5010E944A
:101E00001C298C179D070CF0B4CFF2E0F61598F45E
:101E10000E94C729B5010E941C29F80180830E94F5
:101E2000C72920912A032695622F70E00E941C2961
:101E3000280FF80121839C9CF0019D9CF00D11243A
:101E4000E852FD4F128280912B03893C58F088ECB8
:101E50009C9CF0019D9CF00D1124E852FD4F848361
:101E6000838387CF8431A0F784E1F2CF6091280388
:101E7000669570E04BE050E085E491E00E94D72940
:101E8000892B19F481E08093A3020E94280E90937D
:101E90009D0280939C028091A40284608093A4029E
:101EA0000895B0E0A0E0E7E5FFE00C94BB2849010D
:101EB0005A016B017C010E94C4058401A4016A2DB2
:101EC0007B2D88E090E00E94302A94014A2D5B2D02
:101ED000B601C70100E20E946029622F84E290E00F
:101EE0000E941E2ACDB7DEB7ECE00C94D728A3E001
:101EF000B0E0EDE7FFE00C94BE28082FE62EF42EAC
:101F0000C22E9091280390FF40C0209129032813EE
:101F100008C080912A03861304C080912B03841784
:101F200029F08091A40282608093A402E92FE695B3
:101F3000AE2FB0E0AF54BE4F8C918093A2029E7F33
:101F4000923039F59E012F5F3F4F4F2D6E2D802F20
:101F50000E94D3054B8169818A810E94160D0093EE
:101F60002903E0922A03F0922B03CC2071F02091F8
:101F7000280360912C0370912D03302FA7018091CD
:101F80002E0390912F030E94510F2396E9E00C94A9
:101F9000DA28823019F4F0902B03E1CF8630A1F1DA
:101FA000893091F18931D9F6E9516E2F6170B62EE1
:101FB000E695F0E0EF55FC4F1491D12C609157015C
:101FC000D61618F00E94890ACACFD19EC0011124EA
:101FD00070E00E940829802FB11014C0860F209154
:101FE0005501622F6D0D7727771F9B01220F331F3D
:101FF000260F371F28553D4F4F2D6E2D0E94D305BC
:10200000D394DCCF861BEBCF022FA9CFE8E2F3E01D
:10201000438121E1421B08F440E021E0628181819B
:102020000E94770F0895E8E2F3E0438121E1420F37
:1020300008F44FEF21E0628181810E94770F0895BB
:10204000E8E2F3E0628121E1621B08F460E021E054
:10205000438181810E94770F0895E8E2F3E0628175
:1020600021E1620F08F46FEF21E0438181810E943A
:10207000770F0895E8E2F3E0818121E043816281F6
:1020800088500E94770F0895E8E2F3E0818121E013
:1020900043816281885F0E94770F089580912C03AD
:1020A000882319F0815080932C03209128033091CC
:1020B000290340912A0350912B0360912C037091C6
:1020C0002D0380912E0390912F030E94510F0895AC
:1020D00080912C03833018F48F5F80932C03209120
:1020E00028033091290340912A0350912B036091DA
:1020F0002C0370912D0380912E0390912F030E9449
:10210000510F08959091280390FF39C0917081116B
:1021100037C09260909328038091A40281608093DD
:10212000A402662391F02091280330912903409165
:102130002A0350912B0360912C0370912D03809101
:102140002E0390912F030E94510F609128036695F2
:1021500070E04BE050E085E491E00E94D729892BA4
:10216000B1F00E94BD0581E080939F0220E0409184
:102170002B0360912A03809129030E94770F089511
:102180008B3210F09465C6CF880F982BC3CF0E9476
:10219000360FE9CF809128038695815009F48AE2B1
:1021A00061E00E94821008958091280386958F5FD8
:1021B0008B3208F081E061E00E94821008959091D6
:1021C000280390FF08C09695981728F0961718F4E2
:1021D0000E94D410089561E00E9482100895E8E200
:1021E000F3E087E1808311828FEF828383831482FF
:1021F000A2EAB2E012968C911297836012968C93A9
:10220000758127E130E04FEF5FEF60E086819781D5
:102210000E94510F08959091790292FB222720F994
:10222000281779F080FB92F99093790260917802F7
:102230007091790284E090E00E943C2A82E00E9442
:102240009B090895A4E0B0E0E8E2F1E10C94C42811
:1022500040915702509158026091590270915A0270
:102260002FB7F8948091380390913903A0913A03E5
:10227000B0913B032FBF841B950BA60BB70B11E04E
:1022800084369105A105B10570F10E940B0E6E5FB9
:102290007F4F8F4F9F4F69837A838B839C8380917D
:1022A000250190912601815C9D4F4091240150E0D1
:1022B0004530510510F044E050E0BE016F5F7F4FA4
:1022C0000E94F12984E090E00E943F28182F882383
:1022D00051F00E949B0460935702709358028093C0
:1022E000590290935A02812F2496E3E00C94E0283F
:1022F0004F925F926F927F928F929F92AF92BF9216
:10230000EF92FF920F931F93CF93DF937B01FB011B
:1023100040805180628073809FB7F894809038032A
:1023200090903903A0903A03B0903B039FBF84186C
:102330009508A608B708F4E68F169104A104B10425
:1023400018F4C1E0442329F1C82F880FDD0BFE01EA
:1023500083E0EE0FFF1F8A95E1F7EC5FFE4F81816E
:102360009281815C9D4F408150E00417150708F46D
:10237000A801B9010E94F129CE010E943F28C82F6F
:10238000882339F00E949B04F70160837183828364
:1023900093838C2FDF91CF911F910F91FF90EF903E
:1023A000BF90AF909F908F907F906F905F904F9075
:1023B0000895ABE0B0E0EFEDF1E10C94C32888E0C4
:1023C000E8E2F3E0DE01119601900D928A95E1F7C3
:1023D0008091A2029091A302A091A40289879A877A
:1023E000AB8741E08B85811101C040E00BE010E03C
:1023F0009E012F5F3F4F6FE572E086E00E947811EB
:1024000081111092A4022B96E4E00C94DF28A1E045
:10241000B0E0EDE0F2E10C94C3288091300380FF3E
:1024200018C0869586958695898341E090914B02E8
:10243000981301C040E001E010E09E012F5F3F4F84
:102440006BE572E085E00E9478112196E4E00C943F
:10245000DF2880E0E9CF4F925F927F928F929F9228
:10246000AF92BF92CF92DF92EF92FF920F931F93A2
:10247000CF93DF930F92CDB7DEB7C62E4A01590135
:10248000482E880F5508C2010E943F28782E8823C5
:1024900009F480C0C20133E0880F991F3A95E1F733
:1024A000FC01EC5FFE4F438150E04115510511F0F6
:1024B00041E050E08C5F9E4FFC0164817581615C5E
:1024C0007D4FCE0101960E94F129F4014081518196
:1024D000628173812FB7F89480913803909139030A
:1024E000A0913A03B0913B032FBF841B950BA60B21
:1024F000B70B84369105A105B10540F4B701C801B9
:102500000E94FD049981891709F444C00C2C000C29
:10251000DD08C6010E943F28782E811113C0712C5E
:10252000872D0F90DF91CF911F910F91FF90EF902A
:10253000DF90CF90BF90AF909F908F907F905F90F3
:102540004F900895C60123E0880F991F2A95E1F75F
:10255000FC01EC5FFE4F438150E0E416F50608F401
:10256000A7018C5F9E4FFC0164817581615C7D4F8A
:10257000C5010E94F129B701C8010E94FD0499819B
:102580008913CDCF0E949B04F40160837183828301
:102590009383C6CFA701B801C5010E94F129C0CF1E
:1025A000A5E0B0E0E6EDF2E10C94BF286B0185E018
:1025B000E82EF12C00E412E09E012F5F3F4F47E32D
:1025C00052E061E080E00E942B12882349F095E000
:1025D000FE013196A2E3B2E001900D929A95E1F7E7
:1025E00095E0E2E3F2E0D60101900D929A95E1F7D1
:1025F0002596E8E00C94DB28A5E1B0E0E2E0F3E109
:102600000C94BA288E01045F1F4F8AE0D8011D92F6
:102610008A95E9F784E9C82E81E0D82EF12CE12CC7
:10262000AA24A394B12C21EA822E21E0922EF60155
:1026300081916F018F3F09F442C0F894E82FE29531
:10264000EF70F0E021A18F70A50102C0440F551F6B
:102650008A95E2F7CA01922F982B91A392A18095B7
:10266000892382A3789400C0E9E9F1E0712C31E07C
:1026700021912F3F09F46BC0A22FA295AF70B0E05B
:1026800090968C9190E02F7002C0959587952A9531
:10269000E2F780FD5CC0832F782A330F8E169F06E9
:1026A00039F7F601319780818F3F11F00E946B0658
:1026B00050EA5A95F1F7F801EE0DFF1D70828FEF89
:1026C000E81AF80A95E0E916F10409F0B0CF4AE0FB
:1026D00050E0B8018AE692E00E94E429009741F0B8
:1026E0002AE0F801AAE6B2E001900D922A95E1F7FE
:1026F00000917502892B69F181E0809329020E9483
:10270000A70490932802809327028091270290913A
:1027100028020E948C04059700F110E005581D4F17
:1027200045E050E06AE672E0C8010E94E429D12C3D
:10273000892B51F085E0EAE6F2E0D80101900D9294
:102740008A95E1F7DD24D3941092290207C080E036
:10275000A3CF809129028111D8CFD12C0E94D70D0F
:10276000C82EE0917502DE0111967D01882309F4DF
:1027700083C085E01D928A95E9F70E2F10E0055879
:102780001D4F809163028A3008F044C040ED52E151
:10279000B701C8010E94A40D882309F45CC045E775
:1027A00059E1B701C8010E94A40D882309F453C060
:1027B00042E251E1B701C8010E94A40D882309F447
:1027C0004AC047E052E1B701C8010E94A40D882326
:1027D00009F441C049ED51E1B701C8010E94A40DBF
:1027E0008823C9F1109263028091740290E045E061
:1027F00050E0B70185589D4F0E94E42921E02093C5
:102800003002892BE1F4C12C8C2D8D296596EDE0E9
:102810000C94D62880912A0290912B020E948C045D
:10282000843F914008F0B2CF80913002882359F361
:1028300085E0F70111928A95E9F710923002A09194
:102840007402B0E0A558BD4F85E0F70101900D92EC
:102850008A95E1F7D9CF809163028F3F31F08F5F86
:10286000809363028A3008F4BFCF0E94A70490933C
:102870002B0280932A02D8CFF0E0E558FD4F85E087
:10288000A0E4B2E001900D928A95E1F765E070E076
:1028900080E492E00E94FD0480933F024091980200
:1028A00050E06091970270E06D567D4FC7010E9425
:1028B000F12989818093460261E070E0C7010E949E
:1028C000FD04809345028090470290904802A090BA
:1028D0004902B0904A0280912C0290912D02A09161
:1028E0002E02B0912F0288169906AA06BB06D1F0D7
:1028F00080922C0290922D02A0922E02B0922F0272
:102900000E94D70D81110EC00E949B04861A970A5F
:10291000A80AB90A8092640290926502A0926602A7
:10292000B092670280914B020E9413058BE0ECE4A9
:10293000F2E0D70101900D928A95E1F72981822F6B
:102940008695FA80EB80BC800A851B851092560222
:10295000112309F459CF10FF0AC09091280320FFDA
:102960001AC091609093280360E00E94821011FFCA
:1029700006C020E04B2D6E2D8F2D0E94770F12FF89
:1029800004C00023A9F00E94360F13FF3DCF81E061
:1029900080939F0239CF9E7F909328030E94BD05AC
:1029A0008091A40281608093A4020E94890ADFCFF3
:1029B0000E94BD05EACF8091220290912102892BCD
:1029C0008093DE0190912002992391F0892B8093CE
:1029D000DE0120E080EE91E0FC013191CF01311168
:1029E0002F5FF1E0863E9F07B9F721111092200278
:1029F00048E050E068E172E08EED91E00E94E42949
:102A0000892BA9F088E0EEEDF1E0A8E1B2E00190B9
:102A10000D928A95E1F7E0913303F09134033097FA
:102A200031F00280F381E02D8EED91E0099508955B
:102A300010922202E0EEF1E086E0DF011D928A951D
:102A4000E9F790E080E00E94D80490E080E00E94E6
:102A5000B304109221020E94DB140895AAE2B0E0B0
:102A6000E4E3F5E10C94C4288BE493E02091F100B9
:102A7000FC012193CF01F3E083359F07B9F78091E3
:102A80004C03833009F470C0B8F4813009F447C0B6
:102A9000823009F4B1C08091E80083FF7EC280914A
:102AA0004B0390914C039A3008F077C2E92FF0E085
:102AB000E954F54D0C9430298A3009F48CC08B30E0
:102AC00009F46FC0893039F780914B03813219F7CF
:102AD00080914F03909150030297E8F68091E800AF
:102AE000877F8093E8008091E80082FF38C0909152
:102AF000F3008091F200029731F48091F10081306F
:102B000011F0863021F48091F10080933E03809192
:102B1000E8008B778093E8000E947D03BCCF809112
:102B20004B03813A09F0B7CF8091E800877F80930B
:102B3000E80080914F0390915003892B61F468E085
:102B40008FE393E070E00E9429048091E8008B7786
:102B50008093E800A0CF60E090E080E0F3CF809128
:102B600049038111C0CF97CF80914B03813A09F07F
:102B700092CF80914F0390915003892B09F08BCF16
:102B80008091E800877F8093E8008091E80080FFD3
:102B9000FCCF809158018093F1008091E8008E77FE
:102BA000B9CF80914B03813209F075CF80914F03EB
:102BB00090915003892B09F06ECF8091E800877FB8
:102BC0008093E8000E947D0380914D03809358011B
:102BD0000E94181560CF80914B03813209F05BCFC2
:102BE0008091E800877F8093E8000E947D038091B8
:102BF0004E0380933D034FCF80914B03813A09F000
:102C00004ACF8091E800877F8093E8008091E800B8
:102C100080FFFCCF80913D03BECF803899F0823891
:102C200009F0BBC180914F038F70873008F0B5C1A8
:102C30008093E9008091EB0085FB882780F9109252
:102C4000E90006C08091470390914803911182608A
:102C50009091E800977F9093E8008093F1001092A4
:102C6000F1008091E8008E7794C1882309F482C135
:102C7000823009F092C180914D03811185C180910C
:102C80004F038F702FEF280F263008F086C18093F6
:102C9000E9002091EB0020FF77C1933031F480915F
:102CA000EB0080628093EB006FC19091EB0090612C
:102CB0009093EB0021E030E001C0220F8A95EAF703
:102CC0002093EA001092EA008091EB008860EACF3E
:102CD000811163C110914D031F778091E3008078CB
:102CE000812B8093E3008091E800877F8093E80048
:102CF0000E947D038091E80080FFFCCF8091E3007B
:102D000080688093E30082E0111183E0809349039F
:102D100044C18058823008F040C180914D039091A9
:102D20004E038C3D23E09207A1F583E08A838AE27B
:102D300089834FB7F894DE01139620E03EE051E21C
:102D4000E32FF0E050935700E49120FF03C0E29599
:102D5000EF703F5FEF708E2F90E0EA30C0F0C796C3
:102D60008D939D932F5F243159F74FBF8091E800D9
:102D7000877F8093E8006AE270E0CE0101960E94AE
:102D800029048091E8008B778093E80006C1C09603
:102D9000E7CF40914F0350915003292F3327233021
:102DA000310509F444C078F52130310509F46FC0CC
:102DB0008BE390E0E8E2F5E02230310509F0EDC068
:102DC0002091E800277F2093E80020915103309163
:102DD00052038217930708F49C0140E02115310546
:102DE00009F064C0411162C08091E80082FDC9CF42
:102DF00080914903882329F2853019F28091E800F7
:102E000083FFF2CFBECF21323105A9F12232310545
:102E100009F0C3C04115510509F443C041305105C3
:102E200009F0BBC082E390E0E6EBF4E0C9CF99275C
:102E300081309105C1F0009759F0029709F0ADC0BB
:102E4000E5E7F5E0E4918E2F90E0E5E7F5E007C0D7
:102E5000E3EAF5E0E4918E2F90E0E3EAF5E00097F5
:102E600009F49BC0ADCFE3E9F5E0E4918E2F90E04B
:102E7000E3E9F5E0F4CF4115510571F0413051051A
:102E800009F08BC089E090E0E3E5F5E099CF82E1BD
:102E900090E0E3E6F5E094CF89E090E0EAE3F5E046
:102EA0008FCF80E490E0E8EEF4E08ACF8091490390
:102EB000882309F466CF853009F463CF8091E80058
:102EC00083FD5FCF8091E80082FD8ECF8091E80086
:102ED00080FF84CF9091F3008091F200211531059D
:102EE00019F08830910550F041E0089709F040E072
:102EF0008091E8008E778093E80070CF44914093F2
:102F0000F1003196215031090196E8CF803809F05F
:102F100044C08091E800877F8093E80080914A0355
:102F20008093F1009ECE811138C010914D03123074
:102F3000A0F58091E800877F8093E80010934A0312
:102F40000E947D03112311F084E005C08091E3000D
:102F500087FDFACF81E08093490342E061EC81E094
:102F60000E949C0342E261EC82E00E949C038091FB
:102F7000490313C080914D03813079F481E093308F
:102F800009F080E0809348031092E9008091E80006
:102F9000877F8093E8000E947D038091E80083FF93
:102FA0000AC08091E800877F8093E8008091EB0061
:102FB00080628093EB00AA96E3E00C94E0280E94E4
:102FC00018152FEF84E39CE0215080409040E1F7FA
:102FD00000C0000088E19CE00FB6F894A8958093AB
:102FE00060000FBE90936000FFCF882321F00E9405
:102FF000A5080E94DB140895882339F090912202DD
:10300000982B909322020E94DB140895882309F4E0
:103010004DC0823879F40E94FA0D81FF47C089E3E0
:103020000E94B9080E94DB1489E30E94AC080E9448
:10303000DB140895833859F40E94FA0D80FF36C0DE
:1030400083E50E94B9080E94DB1483E5EECF843843
:1030500059F40E94FA0D82FF29C087E40E94B90842
:103060000E94DB1487E4E1CF9CEF980F913AE8F2DD
:1030700090E2980F983050F4877091E001C0990F5A
:103080008A95EAF7892F0E94A508D1CF9BE5980F72
:10309000933028F490E080E00E94D8040895885A84
:1030A0008B3120F490E080E00E94B3040895CF9328
:1030B000C82F8823C9F08238C9F40E94FA0D81FD17
:1030C00013C089E30E94B9080E94DB142FEF87EE3A
:1030D00093E0215080409040E1F700C0000089E378
:1030E0000E94AC080E94DB14CF9108958338A1F4AC
:1030F0000E94FA0D80FDF8CF83E50E94B9080E9476
:10310000DB142FEF81EE94E0215080409040E1F7F6
:1031100000C0000083E5E4CF8438A1F40E94FA0DDA
:1031200082FDE2CF87E40E94B9080E94DB142FEFF2
:1031300081EE94E0215080409040E1F700C0000013
:1031400087E4CECF8CEF8C0F813A68F4E0EEF1E0AB
:103150008191C817A1F121E0E63EF207C9F78C2F53
:103160000E94B908BFCF80E28C0F883068F4C77026
:1031700021E030E001C0220FCA95EAF780912202D7
:10318000822B80932202AECFEBE5EC0FE33040F4CC
:10319000F0E0E75AFE4F808190E00E94D804A4CF6F
:1031A000C85ACB3108F0A0CFEC2FF0E0EE0FFF1F94
:1031B000E45AFE4F808191810E94B30495CF8C2FF9
:1031C0000E94AC080E94DB14CACF1F93CF93DF93F9
:1031D000182FEB010E945718209739F4812F0E9475
:1031E0000618DF91CF911F9108958FE99FE0019715
:1031F000F1F700C000002197EFCF0F931F93CF93FB
:10320000DF93C62FD42F022FFC0185818823A9F0DC
:1032100060938F030E94A70490938E0380938D0385
:10322000C77081E001C0880FCA95EAF70E94FC17B9
:10323000DF91CF911F910F91089580918F036813B3
:1032400034C080918D0390918E030E948C04883C41
:10325000910558F510E21D0FCD17B9F080E28C0FE3
:10326000883040F4C77081E001C0880FCA95EAF742
:103270000E94F517183048F481E09D2F977001C027
:10328000880F9A95EAF70E94FC1770E060E0802FA3
:103290000E94E518183060F6D77081E001C0880FF1
:1032A000DA95EAF70E94F517C3CFC77081E001C035
:1032B000880FCA95EAF7F6CF81110CC070E066233B
:1032C00031F060E089EA0E94E51880E0089560E04E
:1032D0008AEAF9CF8130C9F770E0662319F060E01F
:1032E0008EE4F1CF60E08BE4EECFA1E0B0E0EBE75D
:1032F000F9E10C94BE28EE24E394F12C06E412E0EC
:103300009E012F5F3F4F4BE352E063E082E00E945B
:103310002B12C82E882339F100E080E01DC0D09028
:103320006902D00E2D2D30E0A9014D565D4F7A0176
:10333000E1E0F0E0EC0FFD1FE00FF11D1081FA015C
:103340009081191BB12E1B149CF0912F17FD90E05A
:10335000191B111118C00F5F909168020917F8F23C
:1033600081110E94250E8C2D2196E9E00C94DA281B
:10337000BA94F70180818F5F808360E08D2D0E9479
:103380005C198C2DE0CF1F5FF70180818150808315
:1033900061E08D2D0E945C198C2DDBCFB0E0A0E0A8
:1033A000E4EDF9E10C94BD288C01FC0184818823B3
:1033B00009F459C021E04081518162817381958176
:1033C0000E94EA09EC01F8018581882309F4CDC443
:1033D000C230F8E7DF0709F47DC0A0F4C11538E773
:1033E000D30779F1C13088E7D80709F441C0FE015D
:1033F000E851FC47E730F10508F09BC0EF53F54D6D
:103400000C943029C43098E7D90709F44FC090F1E3
:10341000C530F8E7DF0759F790913003892F86957B
:10342000869586958F5F8F719770843008F060C0A5
:10343000880F880F880F892B809330038091300389
:1034400021C083E00E94390E80911702877059F0E5
:10345000F8018581882339F08091790282FF03C0C9
:1034600082E00E949B09CDB7DEB7EAE00C94D92830
:1034700080E0E8CF80913003982F987F79F08850D2
:1034800080933003887F91E009F490E080913003CD
:1034900090FB80F9809330030E94330E80913003BB
:1034A0008695869586950E941305CECF8091300330
:1034B000982F969596959695933040F49F5F990F27
:1034C000990F990F8770892B809330038091300377
:1034D0008160E0CF8091300380FF07C08E7F8093B2
:1034E00030030E94330E80E0DECF0E94540EACCF3A
:1034F00090933003A3CF26E241EE61EEC8010E9413
:10350000FD18A2CF27E245EE65EEF8CF26E241EEA8
:1035100060EEF4CF27E245EE64EEF0CF26E241EE16
:1035200062EEECCF27E245EE66EEE8CF28E241E01E
:10353000EBCF10928F03CE019057839708F0D3C33F
:1035400084E090E00E94082A9093790280937802A8
:10355000FE01E150F047E232F10520F4E853F54D69
:103560000C9430298091780281608093780295C014
:10357000809179028860809379028FC0809178026F
:103580008260F3CF809178028460EFCF80917802DF
:103590008860EBCF809179028160EDCF80917902D4
:1035A0008260E9CF809178028061DFCF80917802DC
:1035B0008062DBCF809178028064D7CF0E9418159B
:1035C000809178028068D1CF809178028C60CDCFD5
:1035D000809179028360CFCF809178028E7FC5CFB2
:1035E00080917902877FC7CF809178028D7FBDCF90
:1035F000809178028B7FB9CF80917802877FB5CF99
:10360000809179028E7FB7CF809179028D7FB3CF81
:10361000809178028F7EA9CF809178028F7DA5CF8F
:10362000809178028F7BA1CF0E941815809178023B
:103630008F779BCF80917802837F97CF809179029B
:103640008C7F99CF8091780282FB992790F921E0B5
:10365000922790FB82F990FB83F987CF80917902C2
:10366000982F909591708E7F892B90FB81F983CF55
:1036700090917802892F8F7B96FF806476CF0E948D
:10368000181590917802892F97FB87F980586DCF94
:1036900061E08EE090E00E941E2A609178027091B5
:1036A000790284E090E00E943C2A0E941815CCCE5A
:1036B00060E0EFCF90917802892F8F7E94FF806138
:1036C00054CF90917802892F8E7F90FF81604DCFEB
:1036D00090917902892F877F93FF88604CCF85E393
:1036E00011C385E352C38091280380FF1EC0282F99
:1036F0002E7F209328033091290340912A03509173
:103700002B0360912C0370912D0380912E039091D7
:103710002F030E94510F0E94BD058091A402816079
:103720008093A4020E94890A8FCE8160809328032F
:1037300061E086950E94821087CE4AEC50E164EDEC
:1037400070E10E94B70580CE44ED50E16AEC70E173
:10375000F8CF4AE350E164E470E1F3CF44E450E190
:103760006AE370E1EECF40E250E16DE270E1E9CF53
:103770004DE250E160E270E1E4CF46E050E163E108
:1037800070E1DFCF43E150E166E070E1DACF4EE473
:1037900050E168E670E1D5CF48E650E16EE470E1B3
:1037A000D0CF61E081E0C6CF65E082E00E94DF100B
:1037B0004BCE68E086E0FACF6EE089E0F7CF64E1B7
:1037C0008FE0F4CF67E185E1F1CF61E088E1B2CF2E
:1037D00062E289E1EBCF61E083E2ACCF6AE285E2AD
:1037E000E5CF0E9418152FEF34E38CE021503040D4
:1037F0008040E1F700C000000E94650A6FEF7FEF94
:1038000090E080E00E943C2A0E94DF1780917902BC
:1038100082FB882780F991E089270E940B11F8012B
:103820008581C081D181882309F449C0CE010E94DD
:10383000DC08F82E682FCE010E944F09BE018F2DA3
:103840000E9467070E948707D82EC92FA82EF8016B
:10385000C580B680B2943FE0B32280911702877092
:10386000E9F0DC2DCC20D9F0892F807F803451F015
:1038700080E28D0D883090F0B11004C0892F807ED9
:10388000803261F08091790282FF08C082E00E945C
:103890009B09809117028770D1E009F0D0E0FC2EDF
:1038A000F2942FE0F222FBE0FF1508F46EC0EF2D3A
:1038B000F0E0E651F54D0C94302980E0AECFCE011A
:1038C0000E941D09F82EBACF2C2F2F70E22EC07F38
:1038D00019F0E29490EFE922CC20B9F0EE2069F0E3
:1038E00080E28D0D883010F0A11009C08091220275
:1038F000E82AE09222020E94DB148D2D44C08091C0
:103900002102E82AE0922102F6CF8D2D0E940618AE
:10391000EE20D9F180E28D0D883010F0A11004C0A6
:103920008E2D0E94A50806C0E09480912102E82215
:10393000E09221020E94DB1428C03C2F3F70E32E4E
:10394000C07FC03219F0E29480EFE822AA2059F03B
:1039500081E0A81609F479C0CC2009F485C0BB2009
:1039600009F447C0CACF8091790282FD3EC0CC20C5
:10397000B1F1EE2039F080912202E82AE092220291
:103980000E94DB1480E00E9457182F2D2850330B23
:103990002430310510F40E94FA0DDD23A9F0809146
:1039A000170280FD11C0F8011582869586958695CF
:1039B0000E94B209C8010E94CE1980911702869513
:1039C000869586950E94890920E0F8014081518101
:1039D00062817381848195810E94EA0944CD80E0EF
:1039E0000E940618EE2089F29BCFCC20A1F0B110E6
:1039F00004C08E2D0E94FC17C8CF91E0B912C5CF2C
:103A0000809120029E2D9823E91609F4BECFE82A62
:103A1000E0922002BACFB110B8CF8E2D0E94F517D8
:103A2000909120028E2D892329F08E2D8095892357
:103A3000809320028091E7019E2D982309F4A5CF61
:103A4000E094E822E092E701A0CFCC2029F0E5E065
:103A5000EB1508F49ACFCDCFF4E0FB1508F495CF21
:103A60008E2D0E94F51791CFBB20D1F329E3A2122E
:103A700009C03FEF87EE93E0315080409040E1F77E
:103A800000C000008D2D0E9406187FCF8C2F8695D8
:103A90008695837069F0813009F077CF8D2D9C2F4A
:103AA0009370C11002C080E090E00E94B3046DCF1B
:103AB0008D2D9C2F9370C11002C080E090E00E9479
:103AC000D80463CF8C2F837009F03FC0C1105DCF45
:103AD0004D2D429546954770440F440F2D2D2F7064
:103AE00030E0042E02C0220F331F0A94E2F790E068
:103AF00080E0D4FE09C08FE090E002C0880F991FDB
:103B00004A95E2F780959095C695C695C370C230E8
:103B100099F078F44091230250912402C13039F099
:103B2000822B932B842395230E94C2092ECF242B12
:103B3000352B822B932BF8CF822B932B20912302B2
:103B40003091240282279327EFCF8695CC2011F065
:103B50008C2F8170882309F418CF4D2D42954695FE
:103B60004770440F440F2D2D2F7030E0042E02C0FB
:103B7000220F331F0A94E2F790E080E0D4FE09C0E0
:103B80008FE090E002C0880F991F4A95E2F7809578
:103B90009095C695C695C370C23099F078F440915F
:103BA000760250917702C13039F0822B932B842317
:103BB00095230E948409E9CE242B352B822B932B4D
:103BC000F8CF822B932B20917602309177028227B7
:103BD0009327EFCFCF70CC2029F08C2F0E94B20911
:103BE0008D2D08CF8D2D0E94F5178C2F0E948909ED
:103BF000CCCE8D2DE2EFAE1699F1EA1570F0F0EF14
:103C0000AF16D1F021EFA21691F0CC2009F45BC0E1
:103C1000B11073CE8C2F8F7127C033EFA31639F1FB
:103C200094EFA912F2CF8091790282FD2EC08C2FE1
:103C30008F71CC20D9F218C0CC2069F0E4E0EB15EC
:103C400008F4A3CECF7181E090E002C0880F991FE5
:103C5000CA95E2F7B8CFF5E0FB1508F496CEF2CF9F
:103C60008C2F8F71C110C2CF0E94B2098ECE90E00E
:103C700080E0CC2009F49DCFCF7181E090E002C0BC
:103C8000880F991FCA95E2F794CFCC2089F0CF71A5
:103C90008C2F0E94B2098091790282FF07C028E030
:103CA000C29FC00111248360809317028C2FDCCF48
:103CB00081E00E949B0931E03B1508F066CE82E06E
:103CC0000E949B0962CEBB2059F0893309F0DACEFD
:103CD0008FEF97EEE3E081509040E040E1F7D0CEE7
:103CE0008C2F8F7183CFC631FCE7DF0781F4809181
:103CF00022028A7A91E009F490E09093E601811122
:103D0000EECC89E20E94B9080E94DB149DCBC3303F
:103D10003CE7D30709F472CD50F4C1159CE7D907ED
:103D200009F45FCDC130DC4709F46ECD78CDCB35D9
:103D3000FCE7DF0709F4C1CDCC352CE7D20709F445
:103D400065CDCA35DC4709F06ACD81E066CD80914A
:103D500022028272FE01E052F847E531F10508F0D7
:103D60005ECDEA50F54D0C943029FE01E851FC4738
:103D7000E730F10508F442CBC6312CE7D20739F71A
:103D80008091E6018111ADCC89E20E94AC08BCCFE4
:103D9000CF93DF9380911602807F09F04DC0809110
:103DA0001502882309F448C0E0918C035091530315
:103DB000C0911102D0911002609112027091130211
:103DC00047E05E17C9F18E2F90E0E49FF0011124C7
:103DD000EC5AFC4F2481222391F1489FF001499F26
:103DE000F00D1124DF01AC5ABC4F11962C911197A4
:103DF0002C1325C02C912D1322C015962C911597AC
:103E000021111DC012962D913C91261B370B283C89
:103E10003105A8F4809116028F708061809316029C
:103E2000E65AFC4F80818F708061808380E192E050
:103E30000E94CE190E94D208DF91CF910895FC0113
:103E40003196E770BECFA4E1B0E0E9E2FFE10C9467
:103E5000BB288C0186E0F801DE011F9601900D92CF
:103E60008A95E1F7F8018481E58090E1A92E92E03E
:103E7000B92E90911402911128C0882319F1EE20D7
:103E8000F1F0C8010E94C709F82E8823C1F087E02D
:103E9000F801D50101900D928A95E1F78091140205
:103EA000813031F480911002909111020E9410092A
:103EB0000E94C81E8F2D6496ECE00C94D728C80190
:103EC0000E94CE19FF24F394F5CFD080C180828068
:103ED0009380F09015022091120230911302A401F8
:103EE000421B530BFF2009F4D9C0483C510508F090
:103EF00092C08823F9F29091110280911602282F26
:103F0000207F09F056C0C91214C090911002D91236
:103F100010C0E11048C08F7080618093160280E16C
:103F200092E00E94CE1980911602F8018683F12C4E
:103F3000C1CFE11038C06C2D8D2D0E940E036C2D69
:103F40008D2D0E940E03E82E8111F1CFDF86C88AE5
:103F50008F8598890E941009292F22952F7024306F
:103F600058F49F70223088F0992399F0F8019681D7
:103F7000907F79F4FE2C9ECF2A5F2F70223068F05C
:103F8000C8010E94CE19EF2CF5CF992311F0882398
:103F900089F3805E883070F3F3CF803F58F3815F00
:103FA000833070F7E7CF809116028160809316020C
:103FB000BECFC91207C090911002D91203C0EE20E3
:103FC00009F48DC0C8010E94C709882309F477CF7E
:103FD000EE2009F474CF80911602803288F020918F
:103FE000100230911102398728879B868A8690912A
:103FF00014029C871D868E87CE0108960E94CE19DA
:1040000087E0F801A0E1B2E001900D928A95E1F716
:104010000E94C81E57CF90911602292F207F51F47D
:1040200080E192E00E94CE1987E0F50111928A9515
:10403000E9F77DCF882309F43DCF809111028C11DF
:1040400010C080911002D8120CC0E1100AC09683F3
:10405000C8010E94CE1987E0F50111928A95E9F70F
:1040600029CFC8010E94C709882309F428CFEE2070
:1040700009F425CF80911602803210F220911002AF
:10408000309111023A8329839C828B829091140291
:104090009D831E828F83CE010196B0CF483C51058F
:1040A000D0F6882309F40ECFFE2CEE2009F407CFBA
:1040B000809111028C1120C080911002D8121CC076
:1040C0008091160280FD0FC0982F907F61F086834B
:1040D000903F31F0982F907F905F8F70892B86836F
:1040E000C8010E94CE1987E0F801A0E1B2E001907A
:1040F0000D928A95E1F7DECEC8010E94C7098111B1
:104100007FCF80911602816080931602C8010E94C1
:10411000CE19D0CEABE1B0E0E0E9F0E20C94C328D8
:104120004E8B5F8B688F798F8A8F9B8F192F9111A0
:10413000109221021D8A86E0FE017696DE011F960E
:1041400001900D928A95E1F70A8D002341F021E05C
:104150004F85588969897A89C8010E94EA090B8BC1
:104160001C8B87E0FE013F96DE01189601900D92B0
:104170008A95E1F7CE0108960E94231F81112AC07B
:1041800087E0FE013896DE01119601900D928A9526
:10419000E1F78C858823F1F02091530330E0C901C9
:1041A00001968770992740918C0348171906E9F00A
:1041B00097E0929FD001939FB00D1124AC5ABC4F51
:1041C000FE01319601900D929A95E1F78093530389
:1041D0000E94D20817E080918C03909153038913B9
:1041E00012C06B96E4E00C94DF280E941815109220
:1041F000530310928C0387E0E0E1F2E0DF011D92AF
:104200008A95E9F7E7CF819FC00111248C5A9C4F12
:104210000E94231F882329F380918C0390E001964C
:104220008770992780938C03D6CFA6E0B0E0EBE1AE
:10423000F1E20C94C3280E94A7048C01809125020E
:10424000909126028017910781F019821A820E94AC
:10425000A704682F49815A81792F80E090E00E945D
:104260008A2010932602009325022696E4E00C94FF
:10427000DF28A8E0B0E0EFE3F1E20C94C52866EE99
:104280007EEF90E080E00E943C2A60E082E090E0D7
:104290000E941E2A60E083E090E00E941E2A109295
:1042A00024021092230260E074E184E090E00E9416
:1042B0003C2A60E086E090E00E941E2A6FEF87E0D3
:1042C00090E00E941E2A40E050E0BA0188E090E0B1
:1042D0000E94302A60E084E290E00E941E2A60E0A2
:1042E00087E190E00E941E2A60E08CE090E00E944E
:1042F0001E2A60E08DE090E00E941E2A19821A8238
:104300001B821C821D821E821F82188648E050E09C
:1043100068E170E0CE0101960E940E2A40E050E074
:10432000BA0180E290E00E94302A0E94540E83E09D
:104330000E94390E40E050E0BA018FE090E00E9408
:10434000302A40E050E0BA0183E190E00E94302A38
:104350002896E2E00C94E12890E080E00E94082A90
:10436000863E9E4F51F00E94392180913003847027
:104370008961809330030E94330E86E090E00E94B2
:10438000FA2980933003803220F08770886180930F
:10439000300390913003892F817090FF04C0892FE2
:1043A0008695869586950E94130508951F920F9213
:1043B0000FB60F9211242F933F934F935F936F93F8
:1043C0007F938F939F93AF93BF93CF93DF93EF939D
:1043D000FF93D091E900DF708091EC00C82FC1708D
:1043E00080FDC0E81092E9008091F000877F809303
:1043F000F00078940E942E151092E9008091F00050
:1044000088608093F000CD2BCF70C093E900FF91BE
:10441000EF91DF91CF91BF91AF919F918F917F915C
:104420006F915F914F913F912F910F900FBE0F9021
:104430001F9018951F920F920FB60F9211242F9371
:104440003F934F935F936F937F938F939F93AF931C
:10445000BF93EF93FF938091E10082FF09C08091A9
:10446000E20082FF05C08091E1008B7F8093E10034
:104470008091DA0080FF24C08091D80080FF20C0A6
:104480008091DA008E7F8093DA008091D90080FFDE
:104490009DC080E189BD82E189BD09B400FEFDCFE8
:1044A00081E08093490380913C03811109C00E94FF
:1044B0002D030E94CE038091E20084608093E2008D
:1044C0008091E10080FF17C08091E20080FF13C05F
:1044D0008091E2008E7F8093E2008091E200806113
:1044E0008093E2008091D80080628093D80019BC4C
:1044F00085E0809349038091E10084FF2BC0809187
:10450000E20084FF27C080E189BD82E189BD89B5D1
:10451000982F917080FFFBCF8091D8008F7D809382
:10452000D8008091E1008F7E8093E1008091E200CD
:104530008F7E8093E2008091E20081608093E200B0
:1045400080914A03882309F447C084E0809349039B
:10455000809149038091E10083FF27C08091E200B0
:1045600083FF23C08091E100877F8093E10082E098
:104570008093490310924A038091E1008E7F8093DB
:10458000E1008091E2008E7F8093E2008091E20062
:1045900080618093E20042E060E080E00E949C0342
:1045A0008091F00088608093F000FF91EF91BF91BF
:1045B000AF919F918F917F916F915F914F913F91BB
:1045C0002F910F900FBE0F901F90189519BC10924D
:1045D000490310923C0374CF8091E30087FD93E080
:1045E00090934903B5CF78941F921FB61F92112460
:1045F0008F939F93AF93BF9380913803909139032A
:10460000A0913A03B0913B030196A11DB11D809387
:10461000380390933903A0933A03B0933B03BF91BF
:10462000AF919F918F911F901FBE1F9018951F9261
:104630001FB61F9211248F939F93AF93BF938091C6
:104640003703811113C08091380390913903A091F1
:104650003A03B0913B034196A11DB11D80933803ED
:1046600090933903A0933A03B0933B03BF91AF916A
:104670009F918F911F901FBE1F90189500D000D062
:1046800000D0CDB7DEB785B7806885BF85B78068B5
:1046900085BF84B7877F84BF0FB6F894A8958091B3
:1046A0006000886180936000109260000FBE80E817
:1046B00090E00FB6F89480936100909361000FBE74
:1046C00089E696E09093DD018093DC010E942D0342
:1046D0000E94CE038091E20084608093E20078948F
:1046E000809149038823A1F01091E9001F709091F7
:1046F000EC00892F817090FD80E8182B1092E90062
:104700008091E80083FD0E942E151F701093E90030
:1047100082E084BD93E095BD9AEF97BD80936E00D3
:104720001092640210926502109266021092670263
:1047300087988F988FE891E00197F1F700C000000B
:104740008FB1881F8827881F80933C0180913C018E
:10475000882309F495C01092530188E08093540196
:104760000E94D70D81110E94532790913C0181E056
:10477000982790939702A82FA91BA0936902909164
:104780003C018093980290913C0180936802859847
:104790008D9A86988E9AEFE8F1E03197F1F700C094
:1047A00000002091980249E952E0FA018E2F841B03
:1047B000821708F469C080913C0180913C0195E02A
:1047C000811190E09093750285E0891B80937402BB
:1047D00004E911E0D8018D918D018F3F11F00E9405
:1047E0006B06B1E009391B07A9F709E911E0F801E7
:1047F00081918F018F3F11F00E946B06F1E0013A29
:104800001F07A9F78AE0EBE7F2E0DF01282F1D92EE
:104810002A95E9F7EAE6F2E0DF011D928A95E9F7C9
:1048200090E080E00E94082A863E9E4F11F00E9490
:10483000392182E090E00E94FA298093850284E089
:1048400090E00E94082A90937902809378020E9457
:10485000FC12EFEFF6E721E0E150F0402040E1F7F5
:1048600000C000000E94FC1280917B0280FF18C0F3
:104870006FEF7FEF90E080E00E943C2A0E94650A83
:1048800088E0809353016ACF8FB185FB882780F938
:104890007E9904C090E0892B819388CF92E0FBCF72
:1048A00083E090E00E94FA2990E00E94C209259AD4
:1048B0002D9882E88093800089E1809381008FEFBA
:1048C0009FEF90938700809386000E94AC210E9406
:1048D000AC2180917A0281117BC090E080E00E943F
:1048E000082A863E9E4F21F00E9439210E94EF1037
:1048F00088E090E00E94022A4B015C0184E290E093
:104900000E94FA29282F30E040E050E060E070E09B
:1049100080E090E000E20E944529282939294A29AF
:104920005B29209328033093290340932A03509353
:104930002B0360932C0370932D0380932E0390938D
:104940002F038091A40283608093A4022E7F89F5B7
:104950000E94EF1088E090E00E94022A6B017C0127
:1049600084E290E00E94FA29282F30E040E050E0F5
:1049700060E070E080E090E00E944529B22FA32F14
:10498000F42FE52F5B0197018601BC29A12BFE299D
:10499000E32BB0932803A0932903F0932A03E09319
:1049A0002B0360932C03B0922D0380932E039093DE
:1049B0002F030E94C4050E94BD058091280380FF3B
:1049C00004C060E086950E94821081E080937A02A4
:1049D0000E94D70D811102C00E9456278DE391E0FD
:1049E0009093340380933303B8E1EB2EF12C10E461
:1049F000612E7724739404E0C02ED12C809149035A
:104A000000E112E1853009F483C00E94FC1206E83F
:104A100012E0ABE7AA2EA2E0BA2E20E932E0D501DF
:104A2000F80191918D912E173F0709F47DC09817D9
:104A3000C1F30E94D70D282E912CD5018D905D01D8
:104A4000F80131908F01381429F1512C44244394FA
:104A50003824832D8421B1F02220A1F059829A823A
:104A60000E94A7049C838B837D8291E0842D882102
:104A700009F490E09E8349815A816B817C818D810C
:104A80000E948A205394440CF8E05F12E2CFF801B0
:104A90003197808293942AE09212CFCF0E940B0E1E
:104AA00047C080914903843021F180E00E941305C2
:104AB000109237030FB6F894A895E09260000FBEED
:104AC0006092600083B7817F846083BF83B7816019
:104AD00083BF7894889583B78E7F83BF0FB6F89491
:104AE000A8958091600088618093600010926000BA
:104AF0000FBE80914803882359F00E94FC12EBE717
:104B0000F2E08191811161C182E0E538F807C9F7CF
:104B100080914903853009F4C4CF0E9418150E9482
:104B2000AC210E94FA0D71CF981383CF0E941521FA
:104B30000E94D70D8091A302882309F463C080915D
:104B4000A202E0912803E695E81BE0939E028230E2
:104B500009F06EC0F0E0E356FD4FE4910E2F10E037
:104B6000F0E9AF2EFDE0BF2E80919F02882361F017
:104B700010929F020E94280E90939D0280939C02A7
:104B80001092A1021092A0020E94280EE0919C02B5
:104B9000F0919D029C012E1B3F0B2F3F3F4790F54C
:104BA000209192022223B1F0109292022091900261
:104BB00030919102821B930B8F3F9F4758F4205DE9
:104BC0003A4830939102209390028091A402886029
:104BD0008093A4028090A0029090A102E00FF11FA8
:104BE000F0939D02E0939C028CE992E0F501099517
:104BF0008091A0029091A102892B21F4892811F0C3
:104C000070929202B12CA12C80919802B81608F4EF
:104C10007BC0A1100E94250E0E94FA0D90919B026C
:104C2000891709F4EBCE80939B020E949B04E6CE89
:104C3000863059F4F0E0E656FD4FE4910E2F10E077
:104C4000E0E8AE2EEDE0BE2E8FCF893061F4E69520
:104C5000F0E0E956FD4FE4910E2F10E079EDA72E1C
:104C60007CE0B72E81CF8F3061F4E695F0E0EC5612
:104C7000FD4FE4910E2F10E063E5A62E6CE0B62EFA
:104C800073CF853159F4F0E0EF56FD4FE4910E2FCC
:104C900010E05EECA52E5BE0B52E66CF08E210E0DA
:104CA0002CE4A22E2BE0B22E883109F45DCF8332A2
:104CB00049F4EFE8F2E0059114914FE2A42E4DE0A3
:104CC000B42E52CF04EF11E09FE0A92E9BE0B92E45
:104CD000843209F449CF853281F48E2F63E00E943B
:104CE000FC28E92FF0E0E457FD4FE4910E2F10E08F
:104CF0003CE6A32E3EE0B32E37CF00ED17E087E869
:104D0000A82E84E0B82E30CF0B2D10E0EFB1E5FBDC
:104D1000EE27E0F97E9951C080E08E2BD801A7568E
:104D2000BD4FEC919E2F9370891709F444C0EE0F8C
:104D3000EE0FE82BEC93909097029B0CEF70F0E055
:104D4000EF55FE4F0B561D4F8081D8019C91890F66
:104D50008C93812C843084F0E92DF0E0ED56FD4FEA
:104D600080818F5F80830E94D70D882E882339F140
:104D700060E0892D0E945C19F80180818D3F84F4E8
:104D8000E92DF0E0ED56FD4F8081815080830E9437
:104D9000D70D882E8823B1F061E0892D0E945C191F
:104DA000D8018C91082E000C990BB6010E941C2989
:104DB000F8018083A828B39427CF82E0AECF88245F
:104DC0008394DACF88248394EBCF09BD19BD09B44D
:104DD00000FEFDCF8091D8008F7D8093D800809118
:104DE000E00082608093E0008091E00081FDFCCFD4
:104DF0000E9418158DCE8EE1489B02C08150E1F7CC
:104E0000489BFECF0895589880E28A95F1F7589A0A
:104E10000895FC013BE03A95F1F798E020E080E04E
:104E200031E040E14A95F1F7880F489B02C081606C
:104E3000232742E04A95F1F7000040E14A95F1F757
:104E4000915079F790E19A95F1F799B132E03A955E
:104E5000F1F7000040E14A95F1F791709227208127
:104E6000920F90830895A1E0B0E0E9E3F7E20C949B
:104E7000C12819828C017C01E60EF11C0E151F055C
:104E800041F481E09981911180E02196E6E00C9453
:104E9000DD280E94FB26CE0101960E940927F80119
:104EA00081938F01EBCF509A589A08955098589A51
:104EB000E89AE9E6F0E080818C7F80830895615074
:104EC000770B91E001C0990F6A95EAF720E031E095
:104ED000911108C0222391F0589A80E28A95F1F747
:104EE00058980895492F482339F0589A232740E2CB
:104EF0004A95F1F79695ECCF5898F9CF5898EDCFA1
:104F0000FF920F931F93CF93DF93EC018C01060F59
:104F1000111DC017D10729F4CDB7DEB7E5E00C9419
:104F2000DE28F9900E94032768E08F2D0E945F27FA
:104F3000F0CF1F920F920FB60F9211240F931F9371
:104F40002F933F934F935F936F937F938F939F9391
:104F5000AF93BF93EF93FF93CF93DF930F92CDB7B0
:104F6000DEB719820E94FB26CE0101960E94092716
:104F7000082F069506950695282F22952570902FC7
:104F80009570290F922F937026952695920F98274A
:104F900097708981982B09F05CC0083008F059C0DF
:104FA00080E18A95F1F7589A509A82E08A95F1F754
:104FB00000C0589888E0089F80011124D801AC5F98
:104FC000BE4F1696ED91FC9117973097A9F060911E
:104FD00092017091930114962D913C911597260F93
:104FE000371F11968D919C911297680F791F139618
:104FF0004C9113978C910995F801EC5FFE4F6381FA
:10500000662351F020919201309193018481958122
:10501000820F931F0E9480270E94032780E18A95B8
:10502000F1F758985098589A80E18A95F1F7F8016D
:10503000EC5FFE4F6081662351F020919201309128
:10504000930181819281820F931F0E9433270E94D6
:10505000FB260F90DF91CF91FF91EF91BF91AF9120
:105060009F918F917F916F915F914F913F912F9180
:105070001F910F910F900FBE0F901F9018950F93D7
:105080001F93CF93DF93EC0108970CF04CC0F8947A
:10509000509A589885E08A95F1F700009C2F9695D4
:1050A00095708C2F8570980F892F837096959695A3
:1050B00023E0CC0FDD1F2A95E1F7980F8E01092B15
:1050C0000E94032700C068E0802F0E945F2780E1D4
:1050D0008A95F1F75098589A489B1EC087E090E057
:1050E00048991CC0FE01EC5FFE4F63816623F9F016
:1050F000209192013091930184819581820F931FB9
:105100000E943327811113C0509A589A7894DF91E6
:10511000CF911F910F91089500C0DECF019729F420
:10512000509A589A789480E0F2CF00C0D9CF0E946C
:10513000FB2680E28A95F1F75898509A80E18A958B
:10514000F1F7CC5FDE4F6881662351F02091920128
:105150003091930189819A81820F931F0E94802749
:105160000E940327789481E0D2CF2F923F924F92F2
:105170005F926F927F928F929F92AF92BF92CF92E7
:10518000DF92EF92FF920F931F93CF93DF93CDB7F0
:10519000DEB7CA1BDB0B0FB6F894DEBF0FBECDBF68
:1051A00009942A88398848885F846E847D848C8439
:1051B0009B84AA84B984C884DF80EE80FD800C8142
:1051C0001B81AA81B981CE0FD11D0FB6F894DEBF25
:1051D0000FBECDBFED010895DB018F939F930E9419
:1051E000712ABF91AF91A29F800D911DA39F900D39
:1051F000B29F900D11240895991B79E004C0991F66
:10520000961708F0961B881F7A95C9F78095089520
:10521000AA1BBB1B51E107C0AA1FBB1FA617B707DC
:1052200010F0A61BB70B881F991F5A95A9F78095F8
:105230009095BC01CD01089597FB072E16F40094BC
:1052400007D077FD09D00E94082907FC05D03EF45D
:10525000909581959F4F0895709561957F4F089522
:10526000EE0FFF1F0590F491E02D09940E94A62AED
:10527000332312F48A1B9B0B0C9440290E94A62A0C
:10528000B7FF0895821B930B0895002E083090F00D
:10529000982F872F762F652F542F432F322F2227B9
:1052A0000850F4CF220F331F441F551F661F771F6E
:1052B000881F991F0A95B2F7002D089597FD109445
:1052C000002E083098F00850232F342F452F562FEA
:1052D000672F782F892F912DF4CF15949795879567
:1052E0007795679557954795379527950A95AAF726
:1052F0001124002D08958F929F92AF92BF92CF926A
:10530000DF92EF92FF92CF93DF93EC016881798176
:105310008A819B81611571058105910521F464E203
:1053200079ED8BE597E02DE133EF41E050E00E940D
:10533000522A49015A019B01AC01A7EAB1E40E943B
:10534000712A6B017C01ACEEB4EFA50194010E94BF
:105350007F2ADC01CB018C0D9D1DAE1DBF1DB7FF4B
:1053600003C00197A109B04888839983AA83BB83AE
:105370009F77DF91CF91FF90EF90DF90CF90BF901C
:10538000AF909F908F9008950E947B29089580E0B0
:1053900091E00E947B290895B0E0A0E08093000195
:1053A00090930101A0930201B09303010895FC01C1
:1053B0004150504030F001900616D1F73197CF019F
:1053C0000895882799270895FB01DC0104C08D9179
:1053D0000190801921F441505040C8F7881B990B67
:1053E0000895FB01DC0102C001900D924150504034
:1053F000D8F70895F999FECF92BD81BDF89A992703
:1054000080B50895A6E1B0E044E050E00C94442A51
:10541000A8E1B0E042E050E00C94442ADC01A40F83
:10542000B51F4150504048F0CB01840F951F2E917D
:105430000E941F2A41505040D0F70895262FF99915
:10544000FECF92BD81BDF89A019700B4021639F0E3
:105450001FBA20BD0FB6F894FA9AF99A0FBE0895B4
:105460000396272F0E941F2A0E941E2A252F0E9482
:105470001F2A242F0C941F2A0196272F0E941F2ACF
:105480000C941E2ADC01CB01FC01F999FECF06C069
:10549000F2BDE1BDF89A319600B40D9241505040F2
:1054A000B8F70895052E97FB1EF400940E94692A10
:1054B00057FD07D00E94842A07FC03D04EF40C94B9
:1054C000692A50954095309521953F4F4F4F5F4F3A
:1054D000089590958095709561957F4F8F4F9F4F60
:1054E00008950E94A62AA59F900DB49F900DA49F99
:1054F000800D911D11240895B7FF0C94712A0E940C
:10550000712A821B930B0895A1E21A2EAA1BBB1BC2
:10551000FD010DC0AA1FBB1FEE1FFF1FA217B3077F
:10552000E407F50720F0A21BB30BE40BF50B661F95
:10553000771F881F991F1A9469F760957095809559
:1055400090959B01AC01BD01CF010895A29FB001D0
:10555000B39FC001A39F700D811D1124911DB29FA7
:10556000700D811D1124911D0895F894FFCF0D1623
:105570003516CD173516CD1768168916CD1786172F
:105580009317861A8A1A7B1A821A8E1A921A961AF8
:10559000EC1A611BF41ABE1AC21AF81AC61AFC1ABF
:1055A000081BD21A5A1BD61A0C1BDA1A101B381BEE
:1055B000DE1A141B3F1BE41A1A1B221BCA1A001BFB
:1055C000CE1A041BE81A1E1B2E1B481B581BB81AA8
:1055D000F01A681B641C641C9D1C9D1C461DC51C88
:1055E000C51CC51C621DEA1DF91DF91D731B9D1B01
:1055F000A41BA91BAE1BB31BB81BBD1BC21BC71B27
:10560000CC1BD11BD41BD91BDC1BDF1BE21BE51BF6
:06561000E81BEB1BEE1B82
:10561600010000000000000100000000000000057D
:10562600010000000000000106000000000000016B
:10563600070000000408000000000000010C000044
:10564600000000000B0D000000000000018904515D
:105656000A88044A0A01191A1B1C1D1E1F20212232
:10566600010201001000101001818283E200E900AE
:10567600EA00B500B600B700CD008301CC008A0170
:105686009201940121022302240225022602270206
:105696002A02B300B4006F0070009F01CB019F0285
:1056A600A0023F023132673497F4F1F03733929318
:1056B6009500FF0100010000FFFF0000010001FF4F
:1056C6000000010202020206060609090909090983
:1056D6000F0F0F0F0F0F151515181919191919197D
:0C56E6001919191923242525252525252F
:00000001FF
