:100000000C9480010C94D51D0C949D010C949D01C1
:100010000C949D010C949D010C949D010C949D01E8
:100020000C949D010C949D010C9480190C943C1926
:100030000C947D1A0C949D010C949D010C949D01CF
:100040000C949D010C949D010C949D010C949D01B8
:100050000C949D010C94591A0C949D010C949D01D3
:100060000C949D010C949D010C949D010C949D0198
:100070000C949D010C949D010C949D010C949D0188
:100080000C949D010C949D010C949D010C949D0178
:100090000C949D010C949D010C949D010C949D0168
:1000A0000C949D010C949D010C949D012900350038
:1000B0003A003B003C003D003E002B002B001400AA
:1000C0001A000800150017004B0039000400160044
:1000D000070009000A004E00E1001D001B00060099
:1000E00019000500E000E000E300E20050002152AA
:1000F0002C004500440043004200410040003F0006
:1001000030002F00130012000C0018001C00280003
:10011000340033000F000E000D000B005200E5000C
:100120003800370036001000110051004F185018E9
:1001300046004F00E4002C0000000000000000001A
:100140000000000000002B002B0000000000290030
:1001500035000000390039001E001F00200021007A
:100160002200E100E10000000000000000000000AB
:10017000E000E000E300E200500021522C0000000B
:10018000000000000000000000000000000000006F
:100190004C002A002E002D0000002800000027003F
:1001A00026002500240023005200E5002702260235
:1001B00030002F00310051004F11501121134F001A
:1001C000E4002C0005010902A10185020901A1003A
:1001D00005091901290815002501950875018102F5
:1001E0000501093009311581257F950275088106C1
:1001F00009381581257F950175088106050C0A3897
:10020000021581257F950175088106C0C005010989
:1002100080A101850319012AB700150126B70095B1
:100220000175108100C0050C0901A10185041901A7
:100230002AA002150126A002950175108100C005B3
:10024000010906A101050719E029E7150025019517
:1002500008750181029501750881010507190029BA
:10026000FF150026FF009506750881000508190195
:100270002905950575019102950175039101C00944
:10028000023B00020100A0FA090400000103010181
:100290000009211101000122400007058103080027
:1002A00001090401000103000000092111010001FE
:1002B000227B0007058203200001120100020000DA
:1002C000000810CB57210002010200011E03560056
:1002D000690074006500720062006900200052002D
:1002E000650076002E002000320000000E034B0057
:1002F00065006500620069006F00000004030904E6
:1003000011241FBECFEFDAE0DEBFCDBF11E0A0E0C9
:10031000B1E0E6E9F0E402C005900D92A237B10722
:10032000D9F722E0A2E7B1E001C01D92A837B207D9
:10033000E1F70E94A41A0C940A200C940000482FA4
:100340002091740290913B0257E0291302C080E093
:10035000089530E0529FF001539FF00D1124E45CAA
:10036000FD4F8181681306C08081481303C08581D9
:100370008111EECF2F5F3F4F2770E7CFFC01AC011B
:100380004B5F5F4F8FEF91E32191822728E030E0B0
:1003900087FF09C0880F892721503109C9F7E41761
:1003A000F50791F70895880FF7CFE8EDF0E0808129
:1003B0008E7F80831092E2001092DA001092E100AA
:1003C000A0EEB0E08C9181608C9380818F778083E8
:1003D00019BCA7EDB0E08C918E7F8C9380818F7ECD
:1003E00080831092240208952091E4003091E5006A
:1003F00095E6A9012091EC00822F817020FF06C0B4
:100400008091E80080FF06C080E008952091E80018
:1004100022FD1AC080913102882389F0853089F04D
:100420008091EB0085FD0FC02091E4003091E50044
:1004300042175307F9F29150E1F684E0089582E003
:10044000089583E0089581E008958091330287FF45
:1004500013C08091E80082FF06C08091E8008B778E
:100460008093E80004C0809131028111F2CF089599
:10047000809131028823D9F38091E80080FFF8CF82
:100480008091E8008E77ECCF982F9093E900242F8D
:10049000762F50E0891731F07091EC002091ED003B
:1004A0005091F00021FD07C09F5F973071F7809356
:1004B000E90081E008953091EB003E7F3093EB003E
:1004C0003091ED003D7F3093ED003091EB003160D5
:1004D0003093EB007093EC002093ED005093F0000C
:1004E0002091EE0027FDE0CF80E00895B0E0A0E08D
:1004F000ECE7F2E00C94FB1EC8EDD0E088818F7E23
:100500008883E7EDF0E080818160808384E082BFB2
:1005100081E08093240288818E7F888302EE10E040
:10052000F80110821092DA0081EEC82ED12CF6016B
:10053000108288818F77888388818068888388810A
:100540008F7D888319BC1092310210923202109272
:10055000300210922F0290EEE92EF12CF7018081EB
:100560008B7F808388818160888342E060E080E0C7
:100570000E944402F60180818E7F8083F801808191
:1005800081608083808188608083F70180818E7F95
:100590008083888180618883CDB7DEB7E8E00C94E2
:1005A000171FFC018091390290913A028617970734
:1005B000A0F06115710529F49091E8009E77909361
:1005C000E80090E06115710551F4911108C0809127
:1005D000E80082FF34C080E00895BC01F2CF809132
:1005E00031028823C1F18530C1F18091E80083FD9B
:1005F00030C08091E80082FDEACF8091E80080FF62
:10060000E1CF8091F3002091F200382F6115710540
:1006100019F02830310558F091E02830310509F003
:1006200090E02091E8002E772093E800CBCF8191D5
:100630008093F100615071092F5F3F4FE7CF8091A8
:100640003102882341F0853041F08091E80083FF3A
:10065000BECF81E0089582E0089583E008958091FF
:10066000260208959C014FB7F89480912002909142
:100670002102A0912202B09123024FBF821B930B53
:1006800008952FB7F8946091200270912102809113
:100690002202909123022FBF08952FB7F8948091E2
:1006A000200290912102A0912202B09123022FBF3B
:1006B0000895A3E0B0E0EFE5F3E00C94011F209172
:1006C0001D0230911E0228173907A1F090931E02D7
:1006D00080931D02E0911B02F0911C02309751F0B3
:1006E00024E029839B838A830680F781E02DCE0155
:1006F000019609952396E2E00C941D1FA3E0B0E05B
:10070000E4E8F3E00C94011F2091190230911A02E1
:1007100028173907A1F090931A0280931902E091EB
:100720001B02F0911C02309751F023E029839B8338
:100730008A830680F781E02DCE01019609952396E4
:10074000E2E00C941D1F8F929F92AF92BF92EF92A6
:10075000FF920F931F93CF93DF938830B8F58111E9
:1007600036C0909180009F7D909380002E98A0913C
:100770008600B0918700282F30E00E94881F27E074
:1007800030E040E050E00E94601F89019A018091B2
:100790008600909187006CE070E00E94381F60171F
:1007A0007107D8F0C80169E070E00E94381F7093AB
:1007B0008B0060938A00DF91CF911F910F91FF9082
:1007C000EF90BF90AF909F908F90089587E09091A9
:1007D0008000906290938000CACF809186009091B3
:1007E0008700E0908600F0908700E0918600F0910D
:1007F0008700C6E0D0E0BE010E94381F060F171F19
:10080000211D311D4801590185E0880C991CAA1C45
:10081000BB1C8A95D1F7C701BE010E94381F9F01FA
:1008200050E040E0260F371F411D511DC501B401A6
:100830000E94601F49015A01E0918600F0918700F3
:10084000CA01B9010E94281F9B01AC01DF010E946F
:10085000971F9B01AC01C501B4010E94281F2FE026
:1008600096958795779567952A95D1F7009186009B
:100870001091870030E020E0061717072807390796
:1008800008F095CF609186007091870090CF0E940C
:100890004D039C019091140280911502982B21F038
:1008A000309311022093100290911602809117024A
:1008B000982B21F030930F0220930E02E0911B023F
:1008C000F0911C02309749F082E08093120204807C
:1008D000F581E02D82E192E00995089580910D0265
:1008E00080FD16C081FD16C082FD16C080910C02ED
:1008F0008823A1F0883280F428E0829FC00111246F
:1009000068E270E00E944C1F862F672B39F0089533
:1009100082E0089584E0089588E0089581E00895D4
:1009200080910D0280FD14C081FD14C082FD16C0AF
:1009300080910B02882381F08E3180F420E5829F24
:10094000C00111246EE170E00E944C1F862F0895B3
:1009500084E1089588E2089588E0089580E5089587
:1009600080E00895F894E82FE295EF70F0E031A16F
:10097000282F2F7081E090E001C0880F2A95EAF7B8
:10098000982F9095932391A392A1892B82A3789479
:1009900008959091F30192FF06C0282F2871283006
:1009A000F9F4877F846093FF06C0282F28712831CF
:1009B000F1F4877E84612091F40120FF06C0382F76
:1009C00038713830D9F4877F816021FF06C0282F25
:1009D00028712831D1F4877E816194FD877E089546
:1009E000282F24712430F9F68B7F8860DCCF282FE4
:1009F0002471243101F78B7E8861DDCF382F31716E
:100A0000313019F78E7F8860E0CF282F2171213196
:100A100021F78E7E8861E1CF82389105B9F1B0F47B
:100A20008133910509F47DC048F48932910509F4B8
:100A30006DC08A32910509F47BC008958533910514
:100A400009F45FC08933910509F10895833E91054A
:100A5000D9F138F4803E910529F1823E910579F172
:100A60000895863E9105D9F1873E910509F43EC06F
:100A7000843E910541F52091F40121FF24C080912D
:100A8000F30184FD19C087EE90E008952091F301F1
:100A9000237009F05AC02091F40123FF14C089E2A9
:100AA00090E008952091F30120FD38C03091F401C9
:100AB00030FF09C024FF43C090E080E008952091FA
:100AC000F30122FDF7CF08952091F30122FD3AC0F2
:100AD0003091F40130FD39C024FFF5CFEDCF2091E6
:100AE000F30123FFF0CF24FDE7CFCDCF2091F30119
:100AF00023FD2EC03091F40131FFEECF84EE90E063
:100B000008952091F30125FFDECFC9CF2091F30195
:100B100025FD21C02091F40123FFD5CF89E390E08A
:100B2000D2CF2091F30126FFCECF8AE290E0089544
:100B30002091F30126FFC7CF81E390E0089583EE73
:100B400090E0089582EE90E0089580EE90E00895A0
:100B500086EE90E0089585E390E00895972F7A302F
:100B6000B8F46730A8F48230B0F470E027E0929FC8
:100B7000600D711D1124FB0196E4899FE00DF11DAC
:100B80001124EE0FFF1FE455FF4F859194910895B6
:100B900080E090E0089581E0FCCF1F93CF93DF9336
:100BA0000E940C05EC01C11580E5D807F0F5C115D0
:100BB00080E4D80708F09CC0C03ED10520F5CD3CAC
:100BC000D10508F082C0C83AD10578F4C53AD105FC
:100BD00008F073C0C130D10519F1209709F1C43074
:100BE000D105F0F4D0E0C0E01BC0C33CD105D0F784
:100BF000C85AD0E0CC0FDD1FC35DDE4F0990D8810D
:100C0000C02DD4640DC0C11580E2D80708F0D1C052
:100C1000C11581E0D80708F05AC0C83ED10510F7C9
:100C2000CE01DF91CF911F910895C03682E5D8079C
:100C300018F5C03482E5D80708F06BC0C03282E5F1
:100C4000D80708F05FC0C11582E5D80708F497C03F
:100C50002C2F2695269580E2289F900111248C2F19
:100C60008370C1E0D0E002C0CC0FDD1F8A95E2F7AF
:100C7000C22BD32BDD68D4CFC03A82E5D80760F40D
:100C8000C03882E5D80708F459C0CF71D0E0DC2F16
:100C9000CC27C46FD06AC4CFC03C82E5D80708F423
:100CA00062C0C03E82E5D80708F09CCFDC2FCC277D
:100CB000CC27DF71C06FD06AB3CFC55AD0E0C65D14
:100CC000DE4FC881D0E0D064ABCFD065A9CF8D2FE7
:100CD0000E94C904182FCE0199270E940C05C12F2C
:100CE000D0E0DC2FCC27CC27DF71C82BD92B98CFB5
:100CF000CE0199270E940C05CC27DF70C82BD92B79
:100D0000D06A8ECFCF71D0E0DC2FCC27C16FD06AF4
:100D100087CF2C2F26952695277080E2289F90015B
:100D200011248C2F8370C1E0D0E002C0CC0FDD1FF6
:100D30008A95E2F7C22BD32BDC6872CF2C2F269535
:100D40002695277080E2289F900111248C2F8370B4
:100D5000C1E0D0E002C0CC0FDD1F8A95E2F7C22BC4
:100D6000D32BDA685DCF8C2F8F710E94C904C82FF6
:100D7000D0E0DC2FCC27CC27DF71D06251CF8C2F75
:100D80008F710E94C90455E0D695C7955A95E1F731
:100D9000CF70D0E0DC2FCC27282F30E084FF05C0B7
:100DA00044E0220F331F4A95E1F7C22BD32BD069C1
:100DB00037CF8D2F8F710E94C904182FCE0199272C
:100DC0000E940C05C12FD0E0DC2FCC27CC27DF718F
:100DD000C82BD92BD2CF80959091B40198239093B2
:100DE000B4010895E6E7F1E09191891303C0DF01B2
:100DF00011971C9291E0EC37F907B1F70895A6E737
:100E0000B1E0EFEF90E02D91821751F0EF3F19F430
:100E1000211101C0E92F9F5F9630A9F7EF3F09F438
:100E200008950E2E000CFF0BEC58FE4F82830895A0
:100E30008091740290913B02981301C008958F5FD6
:100E40008770FACFB0E0A0E0E8E2F7E00C94FA1E79
:100E50007C010091F1011091F2018091B501909116
:100E6000B601082B192BCFE0D0E0CC24C394D12CB1
:100E7000BC2EC6010C2E02C0880F991F0A94E2F7FF
:100E800080239123892B49F4219790F7B12C8B2D46
:100E9000CDB7DEB7E9E00C94161FB7018C2F0E9486
:100EA000AE050E94CD05019779F3F1CFCF93DF9383
:100EB000EC010E942207BE010E94AE050E94CD05F2
:100EC000DF91CF9108959A3078F5873068F5E82F53
:100ED000F0E087E0989FE00DF11D11249E2F9770A0
:100EE00083E0F695E7958A95E1F7EE0FFF1FEE0F89
:100EF000FF1FE258FE4F50E040E080E0219130E0DB
:100F0000092E02C0369527950A94E2F721703327FF
:100F1000042E01C0220F0A94EAF7822B4F5F5F4F25
:100F20004430510559F7089580E008959A3098F5B6
:100F3000873088F5E82FF0E087E0989FE00DF11DFD
:100F400011248E2F877041E001C0440F8A95EAF783
:100F500083E0F695E7958A95E1F7EE0FFF1FEE0F18
:100F6000FF1FE258FE4F30E020E070E05191DF01BA
:100F70001197CB01022E02C0969587950A94E2F74D
:100F8000817081958527842385278C932F5F3F4F20
:100F90002430310559F708959093F2018093F101BF
:100FA000089521E030E002C0220F331F8A95E2F756
:100FB000209530958091F1019091F2018223932345
:100FC0000E94CC0708959091A90180958923809370
:100FD000A901282F277069F4891759F09091F4011D
:100FE00092FF07C08695869586950E94D10710923C
:100FF000A901089521E030E002C0220F331F8A9535
:10100000E2F78091F1019091F201822B932B0E94E3
:10101000CC0708959093B6018093B5010895FC0123
:1010200024812223C1F0808191810E9456079295EC
:101030009F70963091F058F4925F9F70923058F400
:10104000803F19F030F4883E30F481E008959A5FD3
:10105000F4CF843FD1F380E00895883EB0F3813F20
:10106000D1F7F3CF662309F45DC08D3C41F40E94B3
:1010700090048195809315020E94470408958E3C48
:1010800019F40E949004F6CF8F3C31F40E94900432
:10109000819580931402F0CF803D19F40E94900452
:1010A000F8CF893D29F40E946E0480931602E4CFA4
:1010B0008A3D21F40E946E048195F7CF8B3D31F477
:1010C0000E946E04819580931702D6CF8C3D19F44F
:1010D0000E946E04F8CF9FE2980F983070F4815D03
:1010E000990B21E030E001C0220F8A95EAF7809148
:1010F0001302822B80931302BFCF8D3D31F4809178
:101100000D02816080930D02B7CF8E3D21F4809156
:101110000D028260F7CF8F3D09F0AECF80910D02B6
:101120008460F0CF409114028D3C59F480911502F7
:1011300087FF0DC01092150241110BC010920B02D7
:1011400008C08E3C81F48091150218169CF344234C
:1011500081F08091160290911702892B09F08CCFB3
:1011600010920C0289CF8F3C49F447FFF0CF1092C8
:101170001402809115028111ECCFE0CF803D19F46B
:101180001416ACF3E4CF90911602893D29F4191698
:10119000F4F610921602DBCF8A3D19F497FFD7CFF1
:1011A000F8CF909117028B3D29F497FFD0CF109282
:1011B0001702CDCF8C3D19F41916CCF3C8CF9FE29E
:1011C000980F983090F4815D990B21E030E0B901DF
:1011D00002C0660F771F8A95E2F7CB018095909148
:1011E0001302892380931302B2CF8D3D31F4809195
:1011F0000D028E7F80930D02AACF8E3D21F4809147
:101200000D028D7FF7CF8F3D09F0A1CF80910D02A8
:101210008B7FF0CFA6E0B0E0E0E1F9E00C94001F96
:1012200049835A8349815A819923A1F0222391F05D
:10123000CA010E942207182F682F89819A810E9473
:10124000960769817A81812F0E94AE052696E3E098
:101250000C941C1FCA010E946307182FF2CF0F9332
:101260001F93CF93DF938B01EA0190913102943069
:1012700061F58093E9008FEF9091E800815095FD32
:1012800006C095ED9A95F1F700008111F5CF809198
:10129000E80085FF1AC00E94F401811111C08091FD
:1012A000E80085FD06C08091E8008E778093E80015
:1012B000F2CFF80181918F018093F100219779F7A6
:1012C0008091E8008E778093E800DF91CF911F91A5
:1012D0000F91089543E050E0BC0182E00E942F0985
:1012E000089546E050E0BC0182E00E942F09089575
:1012F000CF93DF93EC0148E050E0BC0181E00E9415
:101300002F0988E0FE01A7E2B2E001900D928A95D4
:10131000E1F7DF91CF910895B0E0A0E0E2E9F9E0D4
:101320000C94F91E7C015B016A018091E00101E0EF
:1013300010E08A3010F40AE010E0C1E0D0E0B5011E
:10134000C701F6010995811104C021960C171D07EC
:101350002CF4CDB7DEB7EAE00C94151FCC9F9001BA
:10136000CD9F300D300D112490E080E045E34A958B
:10137000F1F70000019682179307C1F7E0CF809143
:10138000C301811110C08091D80080618093D80082
:101390008AE18A95F1F700C08091D90080FF0AC0E8
:1013A00081E08093C30181E09091C301913009F005
:1013B00080E0089582E08093C3010E94D5011092DD
:1013C0003102F1CF0E94BF09882359F0E0911B023E
:1013D000F0911C02309729F00190F081E02D0995E1
:1013E000089580E008950F931F930E94BF098823FA
:1013F00029F00E9441031F910F9108950E9441031B
:101400000091E1011091E2012091E3013091E401AA
:10141000600F711F821F931FEECF682F86E090E050
:101420000E94C01F0895282F220F220F220F909193
:1014300018029770922B90931802987F21E009F47C
:1014400020E09091180220FB90F9909318020E94DE
:10145000A303809118020E940D0A0895809118023A
:1014600080FD13C0816080931802813019F489E0F7
:1014700080931802809118020E940D0A8091180230
:101480008695869586950E94A30308958091B40160
:101490009091B301892B809374019091B2019923AB
:1014A00091F0892B8093740120E086E791E0FC01A4
:1014B0003191CF0131112F5FF1E08C379F07B9F7E0
:1014C00021111092B20148E050E06AEA71E084E72D
:1014D00091E00E94F41F892BA9F088E0E4E7F1E095
:1014E000AAEAB1E001900D928A95E1F7E0911B0222
:1014F000F0911C02309731F00280F381E02D84E7F7
:1015000091E009950895882321F00E94EB060E943E
:10151000460A0895882339F09091B401982B90934E
:10152000B4010E94460A0895882309F456C08238FF
:1015300079F40E94E20981FF50C089E30E94FF060E
:101540000E94460A89E30E94F2060E94460A089514
:10155000833859F40E94E20980FF3FC083E50E946E
:10156000FF060E94460A83E5EECF843859F40E94B4
:10157000E20982FF32C087E40E94FF060E94460A09
:1015800087E4E1CF9CEF980F913AE8F290E2980F50
:10159000983050F4877091E001C0990F8A95EAF76E
:1015A000892F0E94EB06D1CF9BE5980F933028F44A
:1015B00090E080E00E947E03089598E5980F9B31AB
:1015C00028F490E080E00E945903089593E3980F77
:1015D000933118F460E00E9432080895CF93C82F29
:1015E0008823C9F08238C9F40E94E20981FD13C042
:1015F00089E30E94FF060E94460A2FEF87EE93E0E0
:10160000215080409040E1F700C0000089E30E9433
:10161000F2060E94460ACF9108958338A1F40E94F1
:10162000E20980FDF8CF83E50E94FF060E94460A8A
:101630002FEF81EE94E0215080409040E1F700C010
:10164000000083E5E4CF8438A1F40E94E20982FD22
:10165000E2CF87E40E94FF060E94460A2FEF81EE48
:1016600094E0215080409040E1F700C0000087E402
:10167000CECF8CEF8C0F813A68F4E6E7F1E08191F0
:10168000C817E9F121E0EC37F207C9F78C2F0E9467
:10169000FF06BFCF80E28C0F883068F4C77021E06E
:1016A00030E001C0220FCA95EAF78091B401822B85
:1016B0008093B401AECFEBE5EC0FE33040F4F0E003
:1016C000E65DFE4F808190E00E947E03A4CFE8E5B6
:1016D000EC0FEB3150F4F0E0EE0FFF1FE35DFE4F37
:1016E000808191810E94590396CF83E38C0F8331CF
:1016F00008F091CF61E08C2F0E9432088CCF8C2FA4
:101700000E94F2060E94460AC1CF0F931F93CF9307
:10171000DF93C62FD42F022FFC0185818823A9F0E7
:10172000609377020E944D03909376028093750236
:10173000C77081E001C0880FCA95EAF70E948A0A43
:10174000DF91CF911F910F910895809177026813D7
:1017500035C080917502909176020E943203883CD8
:10176000910560F510E21D0FCD17B9F080E28C0FE6
:10177000883040F4C77081E001C0880FCA95EAF74D
:101780000E94830A183048F481E09D2F977001C0B1
:10179000880F9A95EAF70E948A0A802F0E94EE0A23
:1017A000802F0E94940A183058F6D77081E001C04B
:1017B000880FDA95EAF70E94830AC2CFC77081E0EA
:1017C00001C0880FCA95EAF7F6CFCF931092B40103
:1017D000C6E0E6E7F1E0DF018C2F1D928A95E9F77C
:1017E00090E080E00E947E0390E080E00E94590338
:1017F0001092B3010E94460AE2E1F2E0DF011D927D
:10180000CA95E9F710920B0210920C0210920D0289
:101810000E944704CF910895AAE2B0E0E2E1FCE023
:101820000C94001F83E392E02091F100FC012193CE
:10183000CF01F2E08B339F07B9F7809134028330F8
:1018400009F470C0B8F4813009F447C0823009F45B
:10185000B1C08091E80083FF7EC2809133029091F5
:1018600034029A3008F077C2E92FF0E0E45FFF4DD0
:101870000C94821F8A3009F48CC08B3009F46FC03D
:10188000893039F780913302813219F7809137021C
:10189000909138020297E8F68091E800877F809364
:1018A000E8008091E80082FF38C09091F3008091B9
:1018B000F200029731F48091F100813011F086300E
:1018C00021F48091F100809326028091E8008B77CB
:1018D0008093E8000E942502BCCF80913302813AB8
:1018E00009F0B7CF8091E800877F8093E80080916E
:1018F000370290913802892B61F468E087E292E028
:1019000070E00E94D1028091E8008B778093E8001C
:10191000A0CF60E090E080E0F3CF809131028111B0
:10192000C0CF97CF80913302813A09F092CF809156
:10193000370290913802892B09F08BCF8091E80013
:10194000877F8093E8008091E80080FFFCCF809142
:1019500029018093F1008091E8008E77B9CF8091C2
:101960003302813209F075CF8091370290913802AD
:10197000892B09F06ECF8091E800877F8093E80083
:101980000E94250280913502809329010E94E50B77
:1019900060CF80913302813209F05BCF8091E80003
:1019A000877F8093E8000E94250280913602809311
:1019B00025024FCF80913302813A09F04ACF8091BE
:1019C000E800877F8093E8008091E80080FFFCCFEB
:1019D00080912502BECF803899F0823809F0BBC1D2
:1019E000809137028F70873008F0B5C18093E9008D
:1019F0008091EB0085FB882780F91092E90006C0F2
:101A000080912F0290913002911182609091E800B4
:101A1000977F9093E8008093F1001092F1008091FD
:101A2000E8008E7794C1882309F482C1823009F0DE
:101A300092C180913502811185C1809137028F70EA
:101A40002FEF280F263008F086C18093E9002091FF
:101A5000EB0020FF77C1933031F48091EB0080627E
:101A60008093EB006FC19091EB0090619093EB003D
:101A700021E030E001C0220F8A95EAF72093EA00C6
:101A80001092EA008091EB008860EACF811163C177
:101A9000109135021F778091E3008078812B80932D
:101AA000E3008091E800877F8093E8000E94250290
:101AB0008091E80080FFFCCF8091E30080688093F4
:101AC000E30082E0111183E08093310244C1805829
:101AD000823008F040C180913502909136028C3DF1
:101AE00023E09207A1F583E08A838AE289834FB7D6
:101AF000F894DE01139620E03EE051E2E32FF0E09F
:101B000050935700E49120FF03C0E295EF703F5FD0
:101B1000EF708E2F90E0EA30C0F0C7968D939D93C2
:101B20002F5F243159F74FBF8091E800877F809362
:101B3000E8006AE270E0CE0101960E94D102809135
:101B4000E8008B778093E80006C1C096E7CF40910C
:101B5000370250913802292F33272330310509F4F9
:101B600044C078F52130310509F46FC08BE390E073
:101B7000EFE7F2E02230310509F0EDC02091E800F6
:101B8000277F2093E8002091390230913A02821792
:101B9000930708F49C0140E02115310509F064C069
:101BA000411162C08091E80082FDC9CF809131026D
:101BB000882329F2853019F28091E80083FFF2CF63
:101BC000BECF21323105A9F12232310509F0C3C05F
:101BD0004115510509F443C04130510509F0BBC01E
:101BE0008BE790E0E4ECF1E0C9CF992781309105D3
:101BF000C1F0009759F0029709F0ADC0ECECF2E0AB
:101C0000E4918E2F90E0ECECF2E007C0ECEFF2E014
:101C1000E4918E2F90E0ECEFF2E0009709F49BC086
:101C2000ADCFECEEF2E0E4918E2F90E0ECEEF2E03E
:101C3000F4CF4115510571F04130510509F08BC0C9
:101C400089E090E0EAEAF2E099CF82E190E0EAEB05
:101C5000F2E094CF89E090E0E1E9F2E08FCF80E418
:101C600090E0EFE3F2E08ACF80913102882309F41B
:101C700066CF853009F463CF8091E80083FD5FCFA4
:101C80008091E80082FD8ECF8091E80080FF84CFB4
:101C90009091F3008091F2002115310519F0883000
:101CA000910550F041E0089709F040E08091E8008C
:101CB0008E778093E80070CF44914093F100319685
:101CC000215031090196E8CF803809F044C0809155
:101CD000E800877F8093E800809132028093F100D2
:101CE0009ECE811138C0109135021230A0F580913E
:101CF000E800877F8093E800109332020E9425025B
:101D0000112311F084E005C08091E30087FDFACF34
:101D100081E08093310242E061EC81E00E94440264
:101D200042E261EC82E00E9444028091310213C0E1
:101D300080913502813079F481E0933009F080E0C0
:101D4000809330021092E9008091E800877F8093B1
:101D5000E8000E9425028091E80083FF0AC080917C
:101D6000E800877F8093E8008091EB008062809399
:101D7000EB00AA96E3E00C941C1F0E94E50B2FEFEA
:101D800084E39CE0215080409040E1F700C00000D7
:101D900088E19AE00FB6F894A895809360000FBE92
:101DA00090936000FFCFA4E0B0E0E9EDFEE00C947A
:101DB000001F4091CD015091CE016091CF017091F3
:101DC000D0012FB7F8948091200290912102A09128
:101DD0002202B09123022FBF841B950BA60BB70BD9
:101DE00011E084369105A105B10570F10E94F30957
:101DF0006E5F7F4F8F4F9F4F69837A838B839C8366
:101E000080911101909112018F529E4F40911001CB
:101E100050E04530510510F044E050E0BE016F5FE6
:101E20007F4F0E94012082E090E00E947B1E182FCD
:101E3000882351F00E9441036093CD017093CE013D
:101E40008093CF019093D001812F2496E3E00C94EE
:101E50001C1FA1E0B0E0EFE2FFE00C94FF1E8091B8
:101E6000180280FF4EC0869586958695898390914D
:101E7000DB010091DC011091DD012091DE01309148
:101E8000DF01EFB7F8944091200250912102609158
:101E9000220270912302EFBF401B510B620B730BA8
:101EA000443651056105710518F411E0981721F1C8
:101EB0008091190190911A018F529E4F4091180103
:101EC00050E04115510511F041E050E0BE016F5F57
:101ED0007F4F0E94012083E090E00E947B1E182F1C
:101EE000882351F00E9441036093DC017093DD016F
:101EF0008093DE019093DF01812F2196E4E00C9422
:101F00001B1F80E0B3CFEF92FF921F93CF93DF931D
:101F100000D000D000D0CDB7DEB77B0190E080E0EC
:101F20000E947B1E182F882309F46AC04091030188
:101F300050E04115510511F041E050E0609104017D
:101F4000709105016F527E4FCE0106960E940120CE
:101F50004091C9015091CA016091CB017091CC01AF
:101F60002FB7F8948091200290912102A091220233
:101F7000B09123022FBF841B950BA60BB70B8436A1
:101F80009105A105B10538F482ED91E00E94BE01F2
:101F90009E818917A9F181E090E00E947B1E882331
:101FA00009F44EC040910B0150E04630510510F04D
:101FB00045E050E060910C0170910D016F527E4F31
:101FC000CE0101960E94012082ED91E00E94BE01A7
:101FD0009E81891335C00E9441036093C9017093AB
:101FE000CA018093CB019093CC0185E0FE0131962C
:101FF000A4ECB1E001900D928A95E1F711E00BC0DD
:1020000085E0E2EDF1E0DE01119601900D928A95F6
:10201000E1F71111EACF85E0E4ECF1E0D70101909E
:102020000D928A95E1F7812F26960FB6F894DEBFC0
:102030000FBECDBFDF91CF911F91FF90EF9008951C
:1020400010E0E9CFAFE0B0E0E8E2F0E10C94F61E7A
:102050008E010F5F1F4F8AE0D8011D928A95E9F724
:1020600085E6C82E81E0D82EF12CE12CAA24A39479
:10207000B12C21E7822E21E0922EF60181916F0191
:102080008F3F09F442C0F894E82FE295EF70F0E03A
:1020900021A18F70A50102C0440F551F8A95E2F758
:1020A000CA01922F982B91A392A18095892382A394
:1020B000789400C0EAE6F1E0712C31E021912F3FE5
:1020C00009F46BC0A22FA295AF70B0E090968C91EE
:1020D00090E02F7002C0959587952A95E2F780FDD4
:1020E0005CC0832F782A330F8E169F0639F7F601CE
:1020F000319780818F3F11F00E94B20450EA5A95C7
:10210000F1F7F801EE0DFF1D70828FEFE81AF80A63
:10211000A5E0EA16F10409F0B0CF4AE050E0B801BA
:1021200085EE91E00E94F41F009741F02AE0F8014B
:10213000A5EEB1E001900D922A95E1F70091F00132
:10214000892B69F181E08093BB010E944D0390933C
:10215000BA018093B9018091B9019091BA010E94AE
:102160003203059700F110E00B501E4F45E050E0A0
:1021700065EE71E0C8010E94F41FD12C892B51F04B
:1021800085E0E5EEF1E0D80101900D928A95E1F746
:10219000DD24D3941092BB0107C080E0A3CF8091CF
:1021A000BB018111D8CFD12C0E94BF09C82EE0916C
:1021B000F001882309F475C07E01BBE0EB0EF11C31
:1021C00085E0D7011D928A95E9F70E2F10E00B509C
:1021D0001E4F8091E0018A3090F543E85FE0B7013F
:1021E000C8010E948C09882309F44AC043ED5EE0CF
:1021F000B701C8010E948C09882309F441C049E253
:102200005FE0B701C8010E948C098823C9F11092D0
:10221000E0018091EF0190E045E050E0B7018B5084
:102220009E4F0E94F41F21E02093C201892BD9F414
:10223000C12C8C2D8D292F96EDE00C94121F8091CE
:10224000BC019091BD010E943203843F914028F669
:102250008091C201882361F385E0F70111928A958C
:10226000E9F71092C201A091EF01B0E0AB50BE4F70
:1022700085E0FE013B9601900D928A95E1F7D9CF5A
:102280008091E0018F3F31F08F5F8093E0018A30D1
:1022900008F4BFCF0E944D039093BD018093BC0111
:1022A000D7CFF0E0EB50FE4F85E0A2EDB1E001901A
:1022B0000D928A95E1F782ED91E00E94BE01809334
:1022C000D1018090D7019090D801A090D901B09011
:1022D000DA018091BE019091BF01A091C001B0913F
:1022E000C10188169906AA06BB06D1F08092BE01EC
:1022F0009092BF01A092C001B092C1010E94BF099B
:1023000081110EC00E944103861A970AA80AB90AD1
:102310008092E1019092E201A092E301B092E40187
:102320008091DB010E94A30384CFA8E0B0E0EBE939
:10233000F1E10C94011F66EE7EEF90E080E00E94D8
:10234000DE1F60E082E090E00E94C01F60E083E05A
:1023500090E00E94C01F1092B6011092B50160E09B
:1023600074E184E090E00E94DE1F60E086E090E08F
:102370000E94C01F6FEF87E090E00E94C01F40E006
:1023800050E0BA0188E090E00E94D21F60E084E251
:1023900090E00E94C01F60E087E190E00E94C01FB3
:1023A00060E08CE090E00E94C01F60E08DE090E073
:1023B0000E94C01F19821A821B821C821D821E82EB
:1023C0001F82188648E050E068E170E0CE01019677
:1023D0000E94B01F40E050E0BA0180E290E00E940D
:1023E000D21F0E942E0A85E00E94130A40E050E0AE
:1023F000BA018FE090E00E94D21F40E050E0BA01A5
:1024000083E190E00E94D21F2896E2E00C941D1F09
:1024100090E080E00E94AA1F863E9E4F51F00E94ED
:1024200095118091180284708963809318020E942C
:102430000D0A86E090E00E94A21F8093180280346B
:1024400020F0877088638093180290911802892F7A
:10245000817090FF04C0892F8695869586950E948D
:10246000A30308959091F40192FB222720F92817E5
:1024700079F080FB92F99093F4016091F3017091EF
:10248000F40184E090E00E94DE1F82E00E94E307F6
:102490000895B0E0A0E0EFE4F2E10C94F91E8C01A5
:1024A000FC018481882309F459C021E040815181D5
:1024B0006281738195810E940A09EC01F80185818E
:1024C000882309F455C4C230F8E7DF0709F47DC05A
:1024D000A0F4C11538E7D30779F1C13088E7D807F0
:1024E00009F441C0FE01E851FC47E730F10508F06E
:1024F0009BC0EA5EFF4D0C94821FC43098E7D90759
:1025000009F44FC090F1C530F8E7DF0759F7909113
:102510001802892F8695869586958F5F8F719770A3
:10252000883008F060C0880F880F880F892B80934F
:1025300018028091180221C087E00E94130A80913E
:10254000A901877059F0F8018581882339F08091BD
:10255000F40182FF03C082E00E94E307CDB7DEB73B
:10256000EAE00C94151F80E0E8CF80911802982FC4
:10257000987F79F0885080931802887F91E009F461
:1025800090E08091180290FB80F9809318020E94DD
:102590000D0A809118028695869586950E94A30360
:1025A000CECF80911802982F969596959695973054
:1025B00040F49F5F990F990F990F8770892B809333
:1025C0001802809118028160E0CF8091180280FF8C
:1025D00007C08E7F809318020E940D0A80E0DECF34
:1025E0000E942E0AACCF90931802A3CF26E241EEB0
:1025F00061EEC8010E94850BA2CF27E245EE65EE91
:10260000F8CF26E241EE60EEF4CF27E245EE64EE2D
:10261000F0CF26E241EE62EEECCF27E245EE66EE29
:10262000E8CF28E241E0EBCF10927702CE0190573D
:10263000839708F069C384E090E00E94AA1F9093FA
:10264000F4018093F301FE01E150F047E232F1051D
:1026500020F4E35EFF4D0C94821F8091F3018160B2
:102660008093F30195C08091F40188608093F40118
:102670008FC08091F3018260F3CF8091F301846079
:10268000EFCF8091F3018860EBCF8091F4018160FE
:10269000EDCF8091F4018260E9CF8091F3018061F8
:1026A000DFCF8091F3018062DBCF8091F301806402
:1026B000D7CF0E94E50B8091F3018068D1CF809144
:1026C000F3018C60CDCF8091F4018360CFCF8091F6
:1026D000F3018E7FC5CF8091F401877FC7CF8091B2
:1026E000F3018D7FBDCF8091F3018B7FB9CF8091B6
:1026F000F301877FB5CF8091F4018E7FB7CF8091B2
:10270000F4018D7FB3CF8091F3018F7EA9CF8091AB
:10271000F3018F7DA5CF8091F3018F7BA1CF0E9424
:10272000E50B8091F3018F779BCF8091F301837F3D
:1027300097CF8091F4018C7F99CF8091F30182FB38
:10274000992790F921E0922790FB82F990FB83F979
:1027500087CF8091F401982F909591708E7F892B6F
:1027600090FB81F983CF9091F301892F8F7B96FFA6
:10277000806476CF0E94E50B9091F301892F97FB3F
:1027800087F980586DCF61E08EE090E00E94C01F15
:102790006091F3017091F40184E090E00E94DE1FEB
:1027A0000E94E50BCCCE60E0EFCF9091F301892F32
:1027B0008F7E94FF806154CF9091F301892F8E7F9B
:1027C00090FF81604DCF9091F401892F877F93FF17
:1027D00088604CCF85E3A7C285E3DAC20E94E50B8F
:1027E0002FEF34E38CE0215030408040E1F700C00F
:1027F000000087E797E7909301088093000888E13D
:102800009AE00FB6F894A895809360000FBE90935D
:102810006000FFCF6FEF7FEF90E080E00E94DE1F4F
:102820000E94BD0E8091F40182FB882780F991E01F
:1028300089270E943212F8018581C081D1818823C5
:1028400009F44AC0CE010E942207F82E682FCE015B
:102850000E949607BE018F2D0E94AE050E94CD05F5
:10286000D82FC92FA82EF801C580B680B2943FE0BA
:10287000B3228091A9018770F1F0EC2CCC20E1F01B
:10288000892F807F803451F080E28D0F883098F05E
:10289000B11004C0892F807E803269F08091F401EC
:1028A00082FF09C082E00E94E3078091A90187703E
:1028B000EE24E3948111E12CDC2ED2942FE0D2227D
:1028C000FBE0FD1508F46DC0ED2DF0E0E15CFF4D7F
:1028D0000C94821F80E0ADCFCE010E946307F82EDA
:1028E000B9CF2C2F2F70F22EC07F19F0F29490EFF9
:1028F000F922CC20B9F0FF2069F080E28D0F8830FA
:1029000010F0A11009C08091B401F82AF092B4012E
:102910000E94460A8D2F43C08091B301F82AF0929D
:10292000B301F6CF8D2F0E94940AFF20D1F1D05E23
:10293000D83010F0A11004C08F2D0E94EB0606C005
:10294000F0948091B301F822F092B3010E94460AFC
:1029500028C03C2F3F70F32EC07FC03219F0F29494
:1029600080EFF822AA2059F081E0A81609F479C076
:10297000CC2009F485C0BB2009F447C0CBCF80919F
:10298000F40182FD3EC0CC20B1F1FF2039F08091EE
:10299000B401F82AF092B4010E94460A80E00E9435
:1029A000EE0A2D2D2850330B2430310510F40E94EF
:1029B000E209EE20A9F08091A90180FD11C0F80183
:1029C00015828695869586950E94FA07C8010E9411
:1029D00049128091A9018695869586950E94D10716
:1029E00020E0F80140815181628173818481958169
:1029F0000E940A09B3CD80E00E94940AFF2089F268
:102A00009BCFCC20A1F0B11004C08F2D0E948A0A68
:102A1000C8CF91E0B912C5CF8091B2019F2D982304
:102A2000F91609F4BECFF82AF092B201BACFB1106C
:102A3000B8CF8F2D0E94830A9091B2018F2D8923E8
:102A400029F08F2D809589238093B20180917D019B
:102A50009F2D982309F4A5CFF094F822F0927D01E0
:102A6000A0CFCC2029F0E5E0EB1508F49ACFCDCF2C
:102A7000F4E0FB1508F495CF8F2D0E94830A91CFC7
:102A8000BB20D1F329E3A21209C03FEF87EE93E008
:102A9000315080409040E1F700C000008D2F0E942F
:102AA000940A7FCF8C2F86958695837069F081304C
:102AB00009F077CF8D2F9C2F9370C11002C080E05A
:102AC00090E00E9459036DCF8D2F9C2F9370C11001
:102AD00002C080E090E00E947E0363CF6C2D8D2FBA
:102AE0000E9432085ECF8C2F837009F03FC0C11066
:102AF00058CF4D2F429546954770440F440F2D2FC8
:102B00002F7030E0042E02C0220F331F0A94E2F728
:102B100090E080E0D4FF09C08FE090E002C0880F11
:102B2000991F4A95E2F780959095C695C695C37012
:102B3000C23099F078F44091B5015091B601C1309E
:102B400039F0822B932B842395230E940A0829CFE6
:102B5000242B352B822B932BF8CF822B932B209178
:102B6000B5013091B60182279327EFCF8695CC200F
:102B700011F08C2F8170882309F413CF4D2F4295CB
:102B800046954770440F440F2D2F2F7030E0042ED0
:102B900002C0220F331F0A94E2F790E080E0D4FFD6
:102BA00009C08FE090E002C0880F991F4A95E2F7B4
:102BB00080959095C695C695C370C23099F078F40B
:102BC0004091F1015091F201C13039F0822B932BE9
:102BD000842395230E94CC07E4CE242B352B822B13
:102BE000932BF8CF822B932B2091F1013091F2019E
:102BF00082279327EFCFCF70CC2029F08C2F0E9413
:102C0000FA078D2F03CF8D2F0E94830A8C2F0E94ED
:102C1000D107C7CE8D2FE2EFAE1699F1EA1570F00D
:102C2000F0EFAF16D1F021EFA21691F0CC2009F40D
:102C30005BC0B1106FCE8C2F8F7127C033EFA316FE
:102C400039F194EFA912F2CF8091F40182FD2EC0E8
:102C50008C2F8F71CC20D9F218C0CC2069F0E4E021
:102C6000EB1508F49ECECF7181E090E002C0880F92
:102C7000991FCA95E2F7B8CFF5E0FB1508F491CE9D
:102C8000F2CF8C2F8F71C110C2CF0E94FA0789CE6C
:102C900090E080E0CC2009F49DCFCF7181E090E0FE
:102CA00002C0880F991FCA95E2F794CFCC2089F013
:102CB000CF718C2F0E94FA078091F40182FF07C028
:102CC00028E0C29FC001112483608093A9018C2F4A
:102CD000DCCF81E00E94E30731E03B1508F061CED4
:102CE00082E00E94E3075DCEBB2059F0893309F0F2
:102CF000D5CE8FEF97EEE3E081509040E040E1F7D2
:102D0000CBCE8C2F8F7183CFC631FCE7DF0781F4E8
:102D10008091B4018A7A91E009F490E090937C016B
:102D2000811158CD89E20E94FF060E94460A07CC15
:102D3000C3303CE7D30709F46DCD50F4C1159CE7CF
:102D4000D90709F44BCDC130DC4709F469CD73CD07
:102D5000CB35FCE7DF0709F4BDCDCC352CE7D20736
:102D600009F460CDCA35DC4709F065CD81E061CD5D
:102D7000FE01E851FC47E730F10508F4BACBC63153
:102D8000DC4709F058CD80917C01811125CD89E285
:102D90000E94F206CACFCF93DF938091A801807F73
:102DA00009F04DC08091A701882309F448C0E09143
:102DB000740250913B02C091A301D091A201609195
:102DC000A4017091A50147E05E17C9F18E2F90E034
:102DD000E49FF0011124E45CFD4F2481222391F152
:102DE000489FF001499FF00D1124DF01A45CBD4F05
:102DF00011962C9111972C1325C02C912D1322C0C4
:102E000015962C91159721111DC012962D913C916C
:102E1000261B370B283C3105A8F48091A8018F7040
:102E200080618093A801EE5BFD4F80818F7080618F
:102E3000808382EA91E00E9449120E941807DF9184
:102E4000CF910895FC013196E770BECFA4E1B0E0C8
:102E5000ECE2F7E10C94F71E8C0186E0F801DE014C
:102E60001F9601900D928A95E1F7F8018481E58023
:102E700092EAA92E91E0B92E9091A601911128C055
:102E8000882319F1EE20F1F0C8010E940F08F82EF6
:102E90008823C1F087E0F801D50101900D928A9551
:102EA000E1F78091A601813031F48091A2019091E7
:102EB000A3010E9456070E94CB168F2D6496ECE06A
:102EC0000C94131FC8010E944912FF24F394F5CFFC
:102ED000D080C18082809380F090A7012091A401CE
:102EE0003091A501A401421B530BFF2009F4D9C066
:102EF000483C510508F092C08823F9F29091A30153
:102F00008091A801282F207F09F056C0C91214C053
:102F10009091A201D91210C0E11048C08F70806159
:102F20008093A80182EA91E00E9449128091A80151
:102F3000F8018683F12CC1CFE11038C06C2D8D2DA6
:102F40000E949F016C2D8D2D0E949F01E82E811102
:102F5000F1CFDF86C88A8F8598890E945607292F6E
:102F600022952F70243058F49F70223088F09923D6
:102F700099F0F8019681907F79F4FE2C9ECF2A5F1C
:102F80002F70223068F0C8010E944912EF2CF5CF53
:102F9000992311F0882389F3805E883070F3F3CF92
:102FA000803F58F3815F833070F7E7CF8091A801AD
:102FB00081608093A801BECFC91207C09091A20181
:102FC000D91203C0EE2009F48DC0C8010E940F0879
:102FD000882309F477CFEE2009F474CF8091A801FB
:102FE000803288F02091A2013091A301398728878F
:102FF0009B868A869091A6019C871D868E87CE012E
:1030000008960E94491287E0F801A2EAB1E0019017
:103010000D928A95E1F70E94CB1657CF9091A801A7
:10302000292F207F51F482EA91E00E94491287E023
:10303000F50111928A95E9F77DCF882309F43DCFF8
:103040008091A3018C1110C08091A201D8120CC0F4
:10305000E1100AC09683C8010E94491287E0F50179
:1030600011928A95E9F729CFC8010E940F08882399
:1030700009F428CFEE2009F425CF8091A8018032F1
:1030800010F22091A2013091A3013A8329839C82FE
:103090008B829091A6019D831E828F83CE01019623
:1030A000B0CF483C5105D0F6882309F40ECFFE2C52
:1030B000EE2009F407CF8091A3018C1120C08091EC
:1030C000A201D8121CC08091A80180FD0FC0982FCA
:1030D000907F61F08683903F31F0982F907F905FD2
:1030E0008F70892B8683C8010E94491287E0F801FE
:1030F000A2EAB1E001900D928A95E1F7DECEC80117
:103100000E940F0881117FCF8091A8018160809378
:10311000A801C8010E944912D0CEABE1B0E0E3E9BA
:10312000F8E10C94FF1E4E8B5F8B688F798F8A8F2E
:103130009B8F192F91111092B3011D8A86E0FE0119
:103140007696DE011F9601900D928A95E1F70A8D21
:10315000002341F021E04F85588969897A89C801A7
:103160000E940A090B8B1C8B87E0FE013F96DE0153
:10317000189601900D928A95E1F7CE0108960E946B
:10318000261781112AC087E0FE013896DE011196CC
:1031900001900D928A95E1F78C858823F1F02091BA
:1031A0003B0230E0C9010196877099274091740273
:1031B00048171906E9F097E0929FD001939FB00D50
:1031C0001124A45CBD4FFE01319601900D929A9599
:1031D000E1F780933B020E94180717E08091740288
:1031E00090913B02891312C06B96E4E00C941B1F74
:1031F0000E94E50B10923B021092740287E0E2EA13
:10320000F1E0DF011D928A95E9F7E7CF819FC001C8
:103210001124845C9D4F0E942617882329F38091F6
:10322000740290E001968770992780937402D6CF3C
:10323000A6E0B0E0EEE1F9E10C94FF1E0E944D0320
:103240008C018091B7019091B8018017910781F0AE
:1032500019821A820E944D03682F49815A81792F61
:1032600080E090E00E948D181093B8010093B701A0
:103270002696E4E00C941B1F1F920F920FB60F923C
:1032800011242F933F934F935F936F937F938F936B
:103290009F93AF93BF93CF93DF93EF93FF93D0911F
:1032A000E900DF708091EC00C82FC17080FDC0E89C
:1032B0001092E9008091F000877F8093F00078946D
:1032C0000E940C0C1092E9008091F00088608093BD
:1032D000F000CD2BCF70C093E900FF91EF91DF910B
:1032E000CF91BF91AF919F918F917F916F915F919E
:1032F0004F913F912F910F900FBE0F901F901895F7
:103300001F920F920FB60F9211242F933F934F935A
:103310005F936F937F938F939F93AF93BF93EF933D
:10332000FF938091E10082FF09C08091E20082FF5B
:1033300005C08091E1008B7F8093E1008091DA00ED
:1033400080FF24C08091D80080FF20C08091DA00E7
:103350008E7F8093DA008091D90080FF9DC080E14C
:1033600089BD82E189BD09B400FEFDCF81E0809373
:10337000310280912402811109C00E94D5010E946E
:1033800076028091E20084608093E2008091E10007
:1033900080FF17C08091E20080FF13C08091E2009F
:1033A0008E7F8093E2008091E20080618093E20052
:1033B0008091D80080628093D80019BC85E080930A
:1033C00031028091E10084FF2BC08091E20084FFF4
:1033D00027C080E189BD82E189BD89B5982F9170B0
:1033E00080FFFBCF8091D8008F7D8093D8008091A3
:1033F000E1008F7E8093E1008091E2008F7E8093D8
:10340000E2008091E20081608093E20080913202CC
:10341000882309F447C084E080933102809131020F
:103420008091E10083FF27C08091E20083FF23C0E9
:103430008091E100877F8093E10082E080933102F8
:10344000109232028091E1008E7F8093E1008091A2
:10345000E2008E7F8093E2008091E20080618093A1
:10346000E20042E060E080E00E9444028091F000CF
:1034700088608093F000FF91EF91BF91AF919F9191
:103480008F917F916F915F914F913F912F910F900D
:103490000FBE0F901F90189519BC10923102109218
:1034A000240274CF8091E30087FD93E09093310272
:1034B000B5CF78941F921FB61F9211248F939F93BC
:1034C000AF93BF938091200290912102A09122029C
:1034D000B09123020196A11DB11D8093200290930B
:1034E0002102A0932202B0932302BF91AF919F913A
:1034F0008F911F901FBE1F9018951F921FB61F928D
:1035000011248F939F93AF93BF9380911F028111DA
:1035100013C08091200290912102A0912202B091CB
:1035200023024196A11DB11D809320029093210298
:10353000A0932202B0932302BF91AF919F918F91EC
:103540001F901FBE1F901895CDB7DEB72C970FB6F2
:10355000F894DEBF0FBECDBF85B7806885BF85B745
:10356000806885BF84B7877F84BF0FB6F894A8951D
:1035700080916000886180936000109260000FBEAF
:1035800080E890E00FB6F89480936100909361001A
:103590000FBE80EB94E090937301809372010E94C0
:1035A000D5010E9476028091E20084608093E2005F
:1035B0007894809131028823A1F01091E9001F7066
:1035C0009091EC00892F817090FD80E8182B10926B
:1035D000E9008091E80083FD0E940C0C1F7010939D
:1035E000E90082E084BD93E095BD9AEF97BD80939A
:1035F0006E001092E1011092E2011092E30110922C
:10360000E40152985A988FE891E00197F1F700C0D1
:10361000000089B182FB882780F9809320010E94F5
:10362000BF0981110E948F1D80912001809120018E
:1036300095E0811190E09093F00185E0891B8093E3
:10364000EF0105E611E06AE6E62E61E0F62ED8010C
:103650008D918D018F3F11F00E94B204E016F106AA
:10366000B1F70AE611E0F80181918F018F3F11F067
:103670000E94B204F1E001371F07A9F78AE0E5EFE5
:10368000F1E0DF01282F1D922A95E9F7E5EEF1E040
:10369000DF011D928A95E9F790E080E00E94AA1F61
:1036A000863E9E4F11F00E94951182E090E00E94AC
:1036B000A21F8093FF0184E090E00E94AA1F9093D4
:1036C000F4018093F30183E090E00E94A21F90E058
:1036D0000E940A08269A2E9882E28093800089E14F
:1036E000809381008FEF9FEF9093870080938600F7
:1036F0000E9408120E9408120E94BF09811102C094
:103700000E94921D81E291E090931C0280931B0223
:1037100048E1E42EF12C00E45AE0C52E52E0D52E0B
:1037200011E08091310220E1A22E32E1B32E8530EA
:1037300009F483C00E94221080E0A82E82E0B82EF7
:1037400095EF892E91E0992ED401F50191918D91FB
:10375000CE16DF0609F47DC09817C1F30E94BF0999
:10376000282E712CD4016D904D01F50131905F012F
:10377000361429F1512C442443943624832D84217A
:10378000B1F02220A1F05F8278860E944D039A87D3
:1037900089871B8791E0862D842109F490E09C871E
:1037A0004F81588569857A858B850E948D18539441
:1037B000440CF7E05F12E2CFF50131976082739419
:1037C0002AE07212CFCF0E94F30947C080913102E4
:1037D000843021F180E00E94A30310921F020FB6F3
:1037E000F894A895E09260000FBE0093600083B744
:1037F000817F846083BF83B7816083BF789488951D
:1038000083B78E7F83BF0FB6F894A8958091600030
:10381000886180936000109260000FBE809130023A
:10382000882359F00E942210E5EFF1E08191811187
:10383000FEC021E0EF3FF207C9F7809131028530E9
:1038400009F4C4CF0E94E50B0E9408120E94E2090D
:1038500071CF981383CF0E9418190E94BF0986E088
:10386000E2E1F2E0DE01119601900D928A95E1F716
:103870001092140210921502109216021092170262
:103880008B819C81892B09F44AC080911002909110
:1038900011020E9432039C0190910B02992309F4BA
:1038A000E1C025313105D8F19F3F19F09F5F90931A
:1038B0000B02BB80BB2059F00E9490049FEF1B14A9
:1038C0000CF491E0899F802D112480931402BC8018
:1038D000BB2059F00E9490049FEF1B140CF491E060
:1038E000899F802D11248093150230911402332377
:1038F000B1F020911502222391F045EB3403C00171
:103900001124992309F487C09093140245EB2403F2
:1039100090011124332309F481C0309315028D8165
:103920009E81892B09F449C080910E0290910F026B
:103930000E9432039C0190910C02992309F48DC0DE
:1039400021353105D0F19F3F19F09F5F90930C0214
:10395000BD80BB2059F00E946E049FEF1B140CF435
:1039600091E0899F802D112480931602BE80BB2098
:1039700059F00E946E049FEF1B140CF491E0899F94
:10398000802D112480931702309116023323A9F061
:1039900020911702222389F045EB3403C001112442
:1039A000992309F43EC09093160245EB240390013D
:1039B00011243323C9F13093170246E050E0BE01D1
:1039C0006F5F7F4F82E192E00E94F41F892B61F4C8
:1039D0008091140290911502892B90911602892BE7
:1039E00090911702892B11F00E94470486E0FE0196
:1039F0003196A2E1B2E001900D928A95E1F70E9422
:103A0000E20990910A02891709F48BCE80930A0289
:103A10000E94410386CE1093140278CF10931502B2
:103A20007ECF10931602C1CF10931702C6CFA9BC48
:103A3000B9BC09B400FEFDCF8091D8008F7D809382
:103A4000D8008091E00082608093E0008091E000E7
:103A500081FDFCCF0E94E50BF0CE2B30310508F044
:103A600074CFABCF2B30310508F020CF58CF8EE18B
:103A7000489B02C08150E1F7489BFECF08955898BB
:103A800080E28A95F1F7589A0895FC013BE03A9557
:103A9000F1F798E020E080E031E040E14A95F1F76D
:103AA000880F489B02C08160232742E04A95F1F7C6
:103AB000000040E14A95F1F7915079F790E19A952D
:103AC000F1F799B132E03A95F1F7000040E14A95FB
:103AD000F1F7917092272081920F90830895A1E0D1
:103AE000B0E0E5E7FDE10C94FD1E19828C017C013C
:103AF000E60EF11C0E151F0541F481E0998191112C
:103B000080E02196E6E00C94191F0E94371DCE013B
:103B100001960E94451DF80181938F01EBCF509AC9
:103B2000589A08955098589AE89AE9E6F0E080810A
:103B30008C7F808308956150770B91E001C0990FCD
:103B40006A95EAF720E031E0911108C0222391F054
:103B5000589A80E28A95F1F758980895492F48239A
:103B600039F0589A232740E24A95F1F79695ECCF21
:103B70005898F9CF5898EDCFFF920F931F93CF939A
:103B8000DF93EC018C01060F111DC017D10729F43A
:103B9000CDB7DEB7E5E00C941A1FF9900E943F1DE7
:103BA00068E08F2D0E949B1DF0CF1F920F920FB6E1
:103BB0000F9211240F931F932F933F934F935F9373
:103BC0006F937F938F939F93AF93BF93EF93FF93E5
:103BD000CF93DF930F92CDB7DEB719820E94371DC6
:103BE000CE0101960E94451D082F06950695069563
:103BF000282F22952570902F9570290F922F937062
:103C000026952695920F982797708981982B09F011
:103C10005CC0053008F059C080E18A95F1F7589AE8
:103C2000509A82E08A95F1F700C0589888E0089F82
:103C300080011124D801A050BF4F1696ED91FC9140
:103C400017973097A9F06091630170916401149601
:103C50002D913C911597260F371F11968D919C91B0
:103C60001297680F791F13964C9113978C910995B1
:103C7000F801E050FF4F6381662351F0209163010A
:103C80003091640184819581820F931F0E94BC1D35
:103C90000E943F1D80E18A95F1F758985098589AF4
:103CA00080E18A95F1F7F801E050FF4F60816623CB
:103CB00051F0209163013091640181819281820FE2
:103CC000931F0E946F1D0E94371D0F90DF91CF91AF
:103CD000FF91EF91BF91AF919F918F917F916F91E4
:103CE0005F914F913F912F911F910F910F900FBEB8
:103CF0000F901F9018950F931F93CF93DF93EC01B4
:103D000005970CF04CC0F894509A589885E08A9525
:103D1000F1F700009C2F969595708C2F8570980F69
:103D2000892F83709695969523E0CC0FDD1F2A95F9
:103D3000E1F7980F8E01092B0E943F1D00C068E03B
:103D4000802F0E949B1D80E18A95F1F75098589A28
:103D5000489B1EC087E090E048991CC0FE01E050DF
:103D6000FF4F63816623F9F0209163013091640174
:103D700084819581820F931F0E946F1D811113C052
:103D8000509A589A7894DF91CF911F910F9108958E
:103D900000C0DECF019729F4509A589A789480E0B9
:103DA000F2CF00C0D9CF0E94371D80E28A95F1F78B
:103DB0005898509A80E18A95F1F7C050DF4F68819A
:103DC000662351F0209163013091640189819A81C9
:103DD000820F931F0E94BC1D0E943F1D789481E0BA
:103DE000D2CF2F923F924F925F926F927F928F929B
:103DF0009F92AF92BF92CF92DF92EF92FF920F937A
:103E00001F93CF93DF93CDB7DEB7CA1BDB0B0FB683
:103E1000F894DEBF0FBECDBF09942A883988488840
:103E20005F846E847D848C849B84AA84B984C884D6
:103E3000DF80EE80FD800C811B81AA81B981CE0FCD
:103E4000D11D0FB6F894DEBF0FBECDBFED010895B2
:103E5000DB018F939F930E94971FBF91AF91A29F09
:103E6000800D911DA39F900DB29F900D1124089578
:103E7000AA1BBB1B51E107C0AA1FBB1FA617B70790
:103E800010F0A61BB70B881F991F5A95A9F78095AC
:103E90009095BC01CD01089597FB072E16F4009470
:103EA00007D077FD09D00E94381F07FC05D03EF4EB
:103EB000909581959F4F0895709561957F4F0895D6
:103EC000A1E21A2EAA1BBB1BFD010DC0AA1FBB1F1E
:103ED000EE1FFF1FA217B307E407F50720F0A21B90
:103EE000B30BE40BF50B661F771F881F991F1A94FD
:103EF00069F760957095809590959B01AC01BD0127
:103F0000CF010895EE0FFF1F0590F491E02D099465
:103F1000A29FB001B39FC001A39F700D811D11240A
:103F2000911DB29F700D811D1124911D08950E9455
:103F3000881FA59F900DB49F900DA49F800D911D8B
:103F400011240895F999FECF92BD81BDF89A992761
:103F500080B50895A8E1B0E042E050E00C94E61F7F
:103F6000DC01A40FB51F4150504048F0CB01840F35
:103F7000951F2E910E94C11F41505040D0F70895C7
:103F8000262FF999FECF92BD81BDF89A019700B412
:103F9000021639F01FBA20BD0FB6F894FA9AF99AB2
:103FA0000FBE08950396272F0E94C11F0E94C01FB5
:103FB000252F0E94C11F242F0C94C11F0196272F6B
:103FC0000E94C11F0C94C01FDC01CB01FC01F999B8
:103FD000FECF06C0F2BDE1BDF89A319600B40D9255
:103FE00041505040B8F70895FB01DC0104C08D91A9
:103FF0000190801921F441505040C8F7881B990B5B
:104000000895FB01DC0102C001900D924150504027
:10401000D8F70895F894FFCFEB0C130DAB0E130DEA
:10402000AB0E460D670DAB0E640E710E011305133A
:10403000F612FD1209130D1311136713DC136F131E
:1040400039133D1373134113771383134D13D51392
:104050005113871355138B13B31359138F13BA13BB
:104060005F1395139D1345137B1349137F1363133C
:104070009913A913C313D31333136B13E3137114DD
:104080007114A914A91452156E15D114D1147315F5
:06409000FB150A160A16DA
:104096000000000100000000000000050100000013
:1040A6000406000000000000010A000000000000F5
:1040B600012F03780971096A0901818283E200E907
:1040C60000EA00B500B600B700CD008301CC008A37
:1040D60001920194012102230224022502260227CD
:1040E600022A02B300B4006F0070009F01CB019F4B
:1040F60002A002D1019497C63435F4F5F6F73133B0
:02410600320085
:00000001FF
